{
  "contractName": "FundingFactory",
  "abi": [
    {
      "anonymous": false,
      "inputs": [
        {
          "indexed": true,
          "internalType": "address",
          "name": "funding",
          "type": "address"
        },
        {
          "indexed": false,
          "internalType": "address",
          "name": "owner",
          "type": "address"
        }
      ],
      "name": "FundingCreated",
      "type": "event"
    },
    {
      "constant": false,
      "inputs": [
        {
          "internalType": "address",
          "name": "_cToken",
          "type": "address"
        },
        {
          "internalType": "address",
          "name": "_operator",
          "type": "address"
        }
      ],
      "name": "createFunding",
      "outputs": [
        {
          "internalType": "address",
          "name": "fundingAddress",
          "type": "address"
        }
      ],
      "payable": false,
      "stateMutability": "nonpayable",
      "type": "function"
    }
  ],
  "bytecode": "0x608060405234801561001057600080fd5b506127ec806100206000396000f3fe608060405234801561001057600080fd5b506004361061002b5760003560e01c806326e23dab14610030575b600080fd5b6100926004803603604081101561004657600080fd5b81019080803573ffffffffffffffffffffffffffffffffffffffff169060200190929190803573ffffffffffffffffffffffffffffffffffffffff1690602001909291905050506100d4565b604051808273ffffffffffffffffffffffffffffffffffffffff1673ffffffffffffffffffffffffffffffffffffffff16815260200191505060405180910390f35b6000803384846040516100e690610225565b808473ffffffffffffffffffffffffffffffffffffffff1673ffffffffffffffffffffffffffffffffffffffff1681526020018373ffffffffffffffffffffffffffffffffffffffff1673ffffffffffffffffffffffffffffffffffffffff1681526020018273ffffffffffffffffffffffffffffffffffffffff1673ffffffffffffffffffffffffffffffffffffffff1681526020019350505050604051809103906000f08015801561019e573d6000803e3d6000fd5b5090508091508173ffffffffffffffffffffffffffffffffffffffff167fbe9be9c0f67b67ee7d477e7ce1ac94cf072a51918686cd6326cc1ead7842f26933604051808273ffffffffffffffffffffffffffffffffffffffff1673ffffffffffffffffffffffffffffffffffffffff16815260200191505060405180910390a25092915050565b612585806102338339019056fe60806040523480156200001157600080fd5b506040516200258538038062002585833981810160405260608110156200003757600080fd5b81019080805190602001909291908051906020019092919080519060200190929190505050600073ffffffffffffffffffffffffffffffffffffffff168373ffffffffffffffffffffffffffffffffffffffff16141562000100576040517f08c379a00000000000000000000000000000000000000000000000000000000081526004018080602001828103825260128152602001807f46756e64696e672f6f776e65722d7a65726f000000000000000000000000000081525060200191505060405180910390fd5b600073ffffffffffffffffffffffffffffffffffffffff168273ffffffffffffffffffffffffffffffffffffffff161415620001a4576040517f08c379a00000000000000000000000000000000000000000000000000000000081526004018080602001828103825260138152602001807f46756e64696e672f63746f6b656e2d7a65726f0000000000000000000000000081525060200191505060405180910390fd5b600073ffffffffffffffffffffffffffffffffffffffff168173ffffffffffffffffffffffffffffffffffffffff16141562000248576040517f08c379a00000000000000000000000000000000000000000000000000000000081526004018080602001828103825260158152602001807f46756e64696e672f6f70657261746f722d7a65726f000000000000000000000081525060200191505060405180910390fd5b6200025e83620002e960201b620012291760201c565b81609b60006101000a81548173ffffffffffffffffffffffffffffffffffffffff021916908373ffffffffffffffffffffffffffffffffffffffff16021790555080609960006101000a81548173ffffffffffffffffffffffffffffffffffffffff021916908373ffffffffffffffffffffffffffffffffffffffff160217905550505050620004cc565b600060019054906101000a900460ff168062000311575062000310620004b560201b60201c565b5b806200032957506000809054906101000a900460ff16155b62000380576040517f08c379a000000000000000000000000000000000000000000000000000000000815260040180806020018281038252602e81526020018062002557602e913960400191505060405180910390fd5b60008060019054906101000a900460ff161590508015620003d1576001600060016101000a81548160ff02191690831515021790555060016000806101000a81548160ff0219169083151502179055505b81603360006101000a81548173ffffffffffffffffffffffffffffffffffffffff021916908373ffffffffffffffffffffffffffffffffffffffff160217905550603360009054906101000a900473ffffffffffffffffffffffffffffffffffffffff1673ffffffffffffffffffffffffffffffffffffffff16600073ffffffffffffffffffffffffffffffffffffffff167f8be0079c531659141344cd1fd0a4f28419497f9722a3daafe3b4186f6b6457e060405160405180910390a38015620004b15760008060016101000a81548160ff0219169083151502179055505b5050565b6000803090506000813b9050600081149250505090565b61207b80620004dc6000396000f3fe608060405234801561001057600080fd5b50600436106101165760003560e01c80638129fc1c116100a2578063b69ef8a811610071578063b69ef8a814610371578063b6b55f251461038f578063c4d66de8146103bd578063f2fde38b14610401578063fc0c546a1461044557610116565b80638129fc1c146102dd5780638da5cb5b146102e75780638f32d59b14610331578063ae9d70b01461035357610116565b80636353586b116100e95780636353586b146101ab57806369e527da146101ef57806370a0823114610239578063715018a61461029157806377bbb7571461029b57610116565b80630937eb541461011b578063374261ab146101395780633ccfd60b14610157578063570ca73514610161575b600080fd5b61012361048f565b6040518082815260200191505060405180910390f35b610141610495565b6040518082815260200191505060405180910390f35b61015f6104b8565b005b6101696105e7565b604051808273ffffffffffffffffffffffffffffffffffffffff1673ffffffffffffffffffffffffffffffffffffffff16815260200191505060405180910390f35b6101ed600480360360208110156101c157600080fd5b81019080803573ffffffffffffffffffffffffffffffffffffffff16906020019092919050505061060d565b005b6101f7610ae5565b604051808273ffffffffffffffffffffffffffffffffffffffff1673ffffffffffffffffffffffffffffffffffffffff16815260200191505060405180910390f35b61027b6004803603602081101561024f57600080fd5b81019080803573ffffffffffffffffffffffffffffffffffffffff169060200190929190505050610b0b565b6040518082815260200191505060405180910390f35b610299610b54565b005b6102c7600480360360208110156102b157600080fd5b8101908080359060200190929190505050610c8f565b6040518082815260200191505060405180910390f35b6102e5610cb2565b005b6102ef610db9565b604051808273ffffffffffffffffffffffffffffffffffffffff1673ffffffffffffffffffffffffffffffffffffffff16815260200191505060405180910390f35b610339610de3565b604051808215151515815260200191505060405180910390f35b61035b610e42565b6040518082815260200191505060405180910390f35b610379610eec565b6040518082815260200191505060405180910390f35b6103bb600480360360208110156103a557600080fd5b8101908080359060200190929190505050610fcf565b005b6103ff600480360360208110156103d357600080fd5b81019080803573ffffffffffffffffffffffffffffffffffffffff169060200190929190505050611229565b005b6104436004803603602081101561041757600080fd5b81019080803573ffffffffffffffffffffffffffffffffffffffff1690602001909291905050506113e7565b005b61044d61146d565b604051808273ffffffffffffffffffffffffffffffffffffffff1673ffffffffffffffffffffffffffffffffffffffff16815260200191505060405180910390f35b609a5481565b60006104b3609a546104a5610eec565b61151790919063ffffffff16565b905090565b6001606660008282540192505081905550600060665490506000609c60003373ffffffffffffffffffffffffffffffffffffffff1673ffffffffffffffffffffffffffffffffffffffff16815260200190815260200160002054905061051e3382611561565b3373ffffffffffffffffffffffffffffffffffffffff167f7084f5476618d8e60b11ef0d7d3f06914655adb8793e28ff7f018d4c76d505d5826040518082815260200191505060405180910390a25060665481146105e4576040517f08c379a000000000000000000000000000000000000000000000000000000000815260040180806020018281038252601f8152602001807f5265656e7472616e637947756172643a207265656e7472616e742063616c6c0081525060200191505060405180910390fd5b50565b609960009054906101000a900473ffffffffffffffffffffffffffffffffffffffff1681565b609960009054906101000a900473ffffffffffffffffffffffffffffffffffffffff1673ffffffffffffffffffffffffffffffffffffffff163373ffffffffffffffffffffffffffffffffffffffff16148061069b575061066c610db9565b73ffffffffffffffffffffffffffffffffffffffff163373ffffffffffffffffffffffffffffffffffffffff16145b61070d576040517f08c379a000000000000000000000000000000000000000000000000000000000815260040180806020018281038252601c8152602001807f46756e64696e672f69732d6f70657461746f722d6f722d6f776e65720000000081525060200191505060405180910390fd5b600073ffffffffffffffffffffffffffffffffffffffff168173ffffffffffffffffffffffffffffffffffffffff1614156107b0576040517f08c379a00000000000000000000000000000000000000000000000000000000081526004018080602001828103825260158152602001807f46756e64696e672f72656365697665722d7a65726f000000000000000000000081525060200191505060405180910390fd5b60006107ba610495565b90506000811415610833576040517f08c379a00000000000000000000000000000000000000000000000000000000081526004018080602001828103825260138152602001807f46756e64696e672f7265776172642d7a65726f0000000000000000000000000081525060200191505060405180910390fd5b6000609b60009054906101000a900473ffffffffffffffffffffffffffffffffffffffff1673ffffffffffffffffffffffffffffffffffffffff1663852a12e3836040518263ffffffff1660e01b815260040180828152602001915050602060405180830381600087803b1580156108aa57600080fd5b505af11580156108be573d6000803e3d6000fd5b505050506040513d60208110156108d457600080fd5b810190808051906020019092919050505014610958576040517f08c379a000000000000000000000000000000000000000000000000000000000815260040180806020018281038252600e8152602001807f46756e64696e672f72656465656d00000000000000000000000000000000000081525060200191505060405180910390fd5b61096061146d565b73ffffffffffffffffffffffffffffffffffffffff1663a9059cbb83836040518363ffffffff1660e01b8152600401808373ffffffffffffffffffffffffffffffffffffffff1673ffffffffffffffffffffffffffffffffffffffff16815260200182815260200192505050602060405180830381600087803b1580156109e657600080fd5b505af11580156109fa573d6000803e3d6000fd5b505050506040513d6020811015610a1057600080fd5b8101908080519060200190929190505050610a93576040517f08c379a00000000000000000000000000000000000000000000000000000000081526004018080602001828103825260108152602001807f46756e64696e672f7472616e736665720000000000000000000000000000000081525060200191505060405180910390fd5b8173ffffffffffffffffffffffffffffffffffffffff167fb3b7a071186534c03b40695710096f289fd4ed6c1a374aff0bb648955e4fe563826040518082815260200191505060405180910390a25050565b609b60009054906101000a900473ffffffffffffffffffffffffffffffffffffffff1681565b6000609c60008373ffffffffffffffffffffffffffffffffffffffff1673ffffffffffffffffffffffffffffffffffffffff168152602001908152602001600020549050919050565b610b5c610de3565b610bce576040517f08c379a00000000000000000000000000000000000000000000000000000000081526004018080602001828103825260208152602001807f4f776e61626c653a2063616c6c6572206973206e6f7420746865206f776e657281525060200191505060405180910390fd5b600073ffffffffffffffffffffffffffffffffffffffff16603360009054906101000a900473ffffffffffffffffffffffffffffffffffffffff1673ffffffffffffffffffffffffffffffffffffffff167f8be0079c531659141344cd1fd0a4f28419497f9722a3daafe3b4186f6b6457e060405160405180910390a36000603360006101000a81548173ffffffffffffffffffffffffffffffffffffffff021916908373ffffffffffffffffffffffffffffffffffffffff160217905550565b6000610cab82610c9d610e42565b6118f190919063ffffffff16565b9050919050565b600060019054906101000a900460ff1680610cd15750610cd0611977565b5b80610ce857506000809054906101000a900460ff16155b610d3d576040517f08c379a000000000000000000000000000000000000000000000000000000000815260040180806020018281038252602e815260200180612019602e913960400191505060405180910390fd5b60008060019054906101000a900460ff161590508015610d8d576001600060016101000a81548160ff02191690831515021790555060016000806101000a81548160ff0219169083151502179055505b60016066819055508015610db65760008060016101000a81548160ff0219169083151502179055505b50565b6000603360009054906101000a900473ffffffffffffffffffffffffffffffffffffffff16905090565b6000603360009054906101000a900473ffffffffffffffffffffffffffffffffffffffff1673ffffffffffffffffffffffffffffffffffffffff16610e2661198e565b73ffffffffffffffffffffffffffffffffffffffff1614905090565b6000609b60009054906101000a900473ffffffffffffffffffffffffffffffffffffffff1673ffffffffffffffffffffffffffffffffffffffff1663ae9d70b06040518163ffffffff1660e01b815260040160206040518083038186803b158015610eac57600080fd5b505afa158015610ec0573d6000803e3d6000fd5b505050506040513d6020811015610ed657600080fd5b8101908080519060200190929190505050905090565b6000609b60009054906101000a900473ffffffffffffffffffffffffffffffffffffffff1673ffffffffffffffffffffffffffffffffffffffff16633af9e669306040518263ffffffff1660e01b8152600401808273ffffffffffffffffffffffffffffffffffffffff1673ffffffffffffffffffffffffffffffffffffffff168152602001915050602060405180830381600087803b158015610f8f57600080fd5b505af1158015610fa3573d6000803e3d6000fd5b505050506040513d6020811015610fb957600080fd5b8101908080519060200190929190505050905090565b600160666000828254019250508190555060006066549050610fef61146d565b73ffffffffffffffffffffffffffffffffffffffff166323b872dd3330856040518463ffffffff1660e01b8152600401808473ffffffffffffffffffffffffffffffffffffffff1673ffffffffffffffffffffffffffffffffffffffff1681526020018373ffffffffffffffffffffffffffffffffffffffff1673ffffffffffffffffffffffffffffffffffffffff1681526020018281526020019350505050602060405180830381600087803b1580156110a957600080fd5b505af11580156110bd573d6000803e3d6000fd5b505050506040513d60208110156110d357600080fd5b8101908080519060200190929190505050611156576040517f08c379a000000000000000000000000000000000000000000000000000000000815260040180806020018281038252600e8152602001807f46756e64696e672f742d6661696c00000000000000000000000000000000000081525060200191505060405180910390fd5b6111603383611996565b3373ffffffffffffffffffffffffffffffffffffffff167f2da466a7b24304f47e87fa2e1e5a81b9831ce54fec19055ce277ca2f39ba42c4836040518082815260200191505060405180910390a26066548114611225576040517f08c379a000000000000000000000000000000000000000000000000000000000815260040180806020018281038252601f8152602001807f5265656e7472616e637947756172643a207265656e7472616e742063616c6c0081525060200191505060405180910390fd5b5050565b600060019054906101000a900460ff16806112485750611247611977565b5b8061125f57506000809054906101000a900460ff16155b6112b4576040517f08c379a000000000000000000000000000000000000000000000000000000000815260040180806020018281038252602e815260200180612019602e913960400191505060405180910390fd5b60008060019054906101000a900460ff161590508015611304576001600060016101000a81548160ff02191690831515021790555060016000806101000a81548160ff0219169083151502179055505b81603360006101000a81548173ffffffffffffffffffffffffffffffffffffffff021916908373ffffffffffffffffffffffffffffffffffffffff160217905550603360009054906101000a900473ffffffffffffffffffffffffffffffffffffffff1673ffffffffffffffffffffffffffffffffffffffff16600073ffffffffffffffffffffffffffffffffffffffff167f8be0079c531659141344cd1fd0a4f28419497f9722a3daafe3b4186f6b6457e060405160405180910390a380156113e35760008060016101000a81548160ff0219169083151502179055505b5050565b6113ef610de3565b611461576040517f08c379a00000000000000000000000000000000000000000000000000000000081526004018080602001828103825260208152602001807f4f776e61626c653a2063616c6c6572206973206e6f7420746865206f776e657281525060200191505060405180910390fd5b61146a81611d43565b50565b6000609b60009054906101000a900473ffffffffffffffffffffffffffffffffffffffff1673ffffffffffffffffffffffffffffffffffffffff16636f307dc36040518163ffffffff1660e01b815260040160206040518083038186803b1580156114d757600080fd5b505afa1580156114eb573d6000803e3d6000fd5b505050506040513d602081101561150157600080fd5b8101908080519060200190929190505050905090565b600061155983836040518060400160405280601e81526020017f536166654d6174683a207375627472616374696f6e206f766572666c6f770000815250611e89565b905092915050565b6000609c60008473ffffffffffffffffffffffffffffffffffffffff1673ffffffffffffffffffffffffffffffffffffffff1681526020019081526020016000205490508082111561161b576040517f08c379a00000000000000000000000000000000000000000000000000000000081526004018080602001828103825260108152602001807f46756e64696e672f6e6f2d66756e64730000000000000000000000000000000081525060200191505060405180910390fd5b61162e828261151790919063ffffffff16565b609c60008573ffffffffffffffffffffffffffffffffffffffff1673ffffffffffffffffffffffffffffffffffffffff1681526020019081526020016000208190555061168682609a5461151790919063ffffffff16565b609a819055506000609b60009054906101000a900473ffffffffffffffffffffffffffffffffffffffff1673ffffffffffffffffffffffffffffffffffffffff1663852a12e3846040518263ffffffff1660e01b815260040180828152602001915050602060405180830381600087803b15801561170357600080fd5b505af1158015611717573d6000803e3d6000fd5b505050506040513d602081101561172d57600080fd5b8101908080519060200190929190505050146117b1576040517f08c379a000000000000000000000000000000000000000000000000000000000815260040180806020018281038252600e8152602001807f46756e64696e672f72656465656d00000000000000000000000000000000000081525060200191505060405180910390fd5b6117b961146d565b73ffffffffffffffffffffffffffffffffffffffff1663a9059cbb84846040518363ffffffff1660e01b8152600401808373ffffffffffffffffffffffffffffffffffffffff1673ffffffffffffffffffffffffffffffffffffffff16815260200182815260200192505050602060405180830381600087803b15801561183f57600080fd5b505af1158015611853573d6000803e3d6000fd5b505050506040513d602081101561186957600080fd5b81019080805190602001909291905050506118ec576040517f08c379a00000000000000000000000000000000000000000000000000000000081526004018080602001828103825260108152602001807f46756e64696e672f7472616e736665720000000000000000000000000000000081525060200191505060405180910390fd5b505050565b6000808314156119045760009050611971565b600082840290508284828161191557fe5b041461196c576040517f08c379a0000000000000000000000000000000000000000000000000000000008152600401808060200182810382526021815260200180611ff86021913960400191505060405180910390fd5b809150505b92915050565b6000803090506000813b9050600081149250505090565b600033905090565b6000811415611a0d576040517f08c379a00000000000000000000000000000000000000000000000000000000081526004018080602001828103825260148152602001807f46756e64696e672f6465706f7369742d7a65726f00000000000000000000000081525060200191505060405180910390fd5b611a5f81609c60008573ffffffffffffffffffffffffffffffffffffffff1673ffffffffffffffffffffffffffffffffffffffff16815260200190815260200160002054611f4990919063ffffffff16565b609c60008473ffffffffffffffffffffffffffffffffffffffff1673ffffffffffffffffffffffffffffffffffffffff16815260200190815260200160002081905550611ab781609a54611f4990919063ffffffff16565b609a81905550611ac561146d565b73ffffffffffffffffffffffffffffffffffffffff1663095ea7b3609b60009054906101000a900473ffffffffffffffffffffffffffffffffffffffff16836040518363ffffffff1660e01b8152600401808373ffffffffffffffffffffffffffffffffffffffff1673ffffffffffffffffffffffffffffffffffffffff16815260200182815260200192505050602060405180830381600087803b158015611b6d57600080fd5b505af1158015611b81573d6000803e3d6000fd5b505050506040513d6020811015611b9757600080fd5b8101908080519060200190929190505050611c1a576040517f08c379a000000000000000000000000000000000000000000000000000000000815260040180806020018281038252600f8152602001807f46756e64696e672f617070726f7665000000000000000000000000000000000081525060200191505060405180910390fd5b6000609b60009054906101000a900473ffffffffffffffffffffffffffffffffffffffff1673ffffffffffffffffffffffffffffffffffffffff1663a0712d68836040518263ffffffff1660e01b815260040180828152602001915050602060405180830381600087803b158015611c9157600080fd5b505af1158015611ca5573d6000803e3d6000fd5b505050506040513d6020811015611cbb57600080fd5b810190808051906020019092919050505014611d3f576040517f08c379a000000000000000000000000000000000000000000000000000000000815260040180806020018281038252600e8152602001807f46756e64696e672f737570706c7900000000000000000000000000000000000081525060200191505060405180910390fd5b5050565b600073ffffffffffffffffffffffffffffffffffffffff168173ffffffffffffffffffffffffffffffffffffffff161415611dc9576040517f08c379a0000000000000000000000000000000000000000000000000000000008152600401808060200182810382526026815260200180611fd26026913960400191505060405180910390fd5b8073ffffffffffffffffffffffffffffffffffffffff16603360009054906101000a900473ffffffffffffffffffffffffffffffffffffffff1673ffffffffffffffffffffffffffffffffffffffff167f8be0079c531659141344cd1fd0a4f28419497f9722a3daafe3b4186f6b6457e060405160405180910390a380603360006101000a81548173ffffffffffffffffffffffffffffffffffffffff021916908373ffffffffffffffffffffffffffffffffffffffff16021790555050565b6000838311158290611f36576040517f08c379a00000000000000000000000000000000000000000000000000000000081526004018080602001828103825283818151815260200191508051906020019080838360005b83811015611efb578082015181840152602081019050611ee0565b50505050905090810190601f168015611f285780820380516001836020036101000a031916815260200191505b509250505060405180910390fd5b5060008385039050809150509392505050565b600080828401905083811015611fc7576040517f08c379a000000000000000000000000000000000000000000000000000000000815260040180806020018281038252601b8152602001807f536166654d6174683a206164646974696f6e206f766572666c6f77000000000081525060200191505060405180910390fd5b809150509291505056fe4f776e61626c653a206e6577206f776e657220697320746865207a65726f2061646472657373536166654d6174683a206d756c7469706c69636174696f6e206f766572666c6f77436f6e747261637420696e7374616e63652068617320616c7265616479206265656e20696e697469616c697a6564a265627a7a7231582073730926026118ce09b2497109d37301d41c4e2096f832449f6e280609922fa164736f6c63430005100032436f6e747261637420696e7374616e63652068617320616c7265616479206265656e20696e697469616c697a6564a265627a7a72315820e72ec8693e02e84a839b6210fff9db4bb6b883ba9e899c8a7ee0ee3ea998447964736f6c63430005100032",
  "source": "\npragma solidity ^0.5.0;\n\n// import \"openzeppelin-s/upgrades/contracts/Initializable.sol\";\nimport \"./Funding.sol\";\n\ncontract FundingFactory {\n\n\n  event FundingCreated(address indexed funding, address owner);\n\n  function createFunding(address _cToken, address _operator) public  returns (address fundingAddress) {\n\n    Funding funding = new Funding(msg.sender, _cToken, _operator);\n\n    fundingAddress = address(funding);\n    emit FundingCreated(fundingAddress, msg.sender);\n  }\n}\n",
  "sourcePath": "/Users/leon/workspace/genie/genie-contracts/contracts/FundingFactory.sol",
  "compiler": {
    "name": "solc",
    "version": "0.5.16+commit.9c3226ce.Emscripten.clang"
  },
  "schemaVersion": "3.1.0",
  "updatedAt": "2020-04-29T17:31:12.973Z",
  "devdoc": {
    "methods": {}
  },
  "userdoc": {
    "methods": {}
  }
}