{
  "contractName": "Funding",
  "abi": [
    {
      "inputs": [
        {
          "internalType": "address",
          "name": "_owner",
          "type": "address"
        },
        {
          "internalType": "address",
          "name": "_cToken",
          "type": "address"
        },
        {
          "internalType": "address",
          "name": "_operator",
          "type": "address"
        },
        {
          "internalType": "address",
          "name": "_oracle",
          "type": "address"
        },
        {
          "internalType": "uint256",
          "name": "_ticketPrice",
          "type": "uint256"
        }
      ],
      "payable": false,
      "stateMutability": "nonpayable",
      "type": "constructor"
    },
    {
      "anonymous": false,
      "inputs": [
        {
          "indexed": true,
          "internalType": "address",
          "name": "sender",
          "type": "address"
        },
        {
          "indexed": false,
          "internalType": "uint256",
          "name": "amount",
          "type": "uint256"
        },
        {
          "indexed": false,
          "internalType": "string",
          "name": "userId",
          "type": "string"
        }
      ],
      "name": "Deposited",
      "type": "event"
    },
    {
      "anonymous": false,
      "inputs": [
        {
          "indexed": true,
          "internalType": "address",
          "name": "previousOwner",
          "type": "address"
        },
        {
          "indexed": true,
          "internalType": "address",
          "name": "newOwner",
          "type": "address"
        }
      ],
      "name": "OwnershipTransferred",
      "type": "event"
    },
    {
      "anonymous": false,
      "inputs": [
        {
          "indexed": true,
          "internalType": "address",
          "name": "receiver",
          "type": "address"
        },
        {
          "indexed": false,
          "internalType": "uint256",
          "name": "amount",
          "type": "uint256"
        }
      ],
      "name": "Rewarded",
      "type": "event"
    },
    {
      "anonymous": false,
      "inputs": [
        {
          "indexed": true,
          "internalType": "address",
          "name": "sender",
          "type": "address"
        },
        {
          "indexed": false,
          "internalType": "uint256",
          "name": "amount",
          "type": "uint256"
        }
      ],
      "name": "Withdrawn",
      "type": "event"
    },
    {
      "constant": true,
      "inputs": [],
      "name": "accountedBalance",
      "outputs": [
        {
          "internalType": "uint256",
          "name": "",
          "type": "uint256"
        }
      ],
      "payable": false,
      "stateMutability": "view",
      "type": "function"
    },
    {
      "constant": true,
      "inputs": [],
      "name": "cToken",
      "outputs": [
        {
          "internalType": "contract ICErc20",
          "name": "",
          "type": "address"
        }
      ],
      "payable": false,
      "stateMutability": "view",
      "type": "function"
    },
    {
      "constant": false,
      "inputs": [],
      "name": "initialize",
      "outputs": [],
      "payable": false,
      "stateMutability": "nonpayable",
      "type": "function"
    },
    {
      "constant": false,
      "inputs": [
        {
          "internalType": "address",
          "name": "sender",
          "type": "address"
        }
      ],
      "name": "initialize",
      "outputs": [],
      "payable": false,
      "stateMutability": "nonpayable",
      "type": "function"
    },
    {
      "constant": true,
      "inputs": [],
      "name": "isOpen",
      "outputs": [
        {
          "internalType": "bool",
          "name": "",
          "type": "bool"
        }
      ],
      "payable": false,
      "stateMutability": "view",
      "type": "function"
    },
    {
      "constant": true,
      "inputs": [],
      "name": "isOwner",
      "outputs": [
        {
          "internalType": "bool",
          "name": "",
          "type": "bool"
        }
      ],
      "payable": false,
      "stateMutability": "view",
      "type": "function"
    },
    {
      "constant": true,
      "inputs": [],
      "name": "operator",
      "outputs": [
        {
          "internalType": "address",
          "name": "",
          "type": "address"
        }
      ],
      "payable": false,
      "stateMutability": "view",
      "type": "function"
    },
    {
      "constant": true,
      "inputs": [],
      "name": "oracle",
      "outputs": [
        {
          "internalType": "contract FundingOracleClient",
          "name": "",
          "type": "address"
        }
      ],
      "payable": false,
      "stateMutability": "view",
      "type": "function"
    },
    {
      "constant": true,
      "inputs": [],
      "name": "owner",
      "outputs": [
        {
          "internalType": "address",
          "name": "",
          "type": "address"
        }
      ],
      "payable": false,
      "stateMutability": "view",
      "type": "function"
    },
    {
      "constant": false,
      "inputs": [],
      "name": "renounceOwnership",
      "outputs": [],
      "payable": false,
      "stateMutability": "nonpayable",
      "type": "function"
    },
    {
      "constant": true,
      "inputs": [],
      "name": "ticketPrice",
      "outputs": [
        {
          "internalType": "uint256",
          "name": "",
          "type": "uint256"
        }
      ],
      "payable": false,
      "stateMutability": "view",
      "type": "function"
    },
    {
      "constant": false,
      "inputs": [
        {
          "internalType": "address",
          "name": "newOwner",
          "type": "address"
        }
      ],
      "name": "transferOwnership",
      "outputs": [],
      "payable": false,
      "stateMutability": "nonpayable",
      "type": "function"
    },
    {
      "constant": false,
      "inputs": [
        {
          "internalType": "uint256",
          "name": "_amount",
          "type": "uint256"
        },
        {
          "internalType": "string",
          "name": "_userId",
          "type": "string"
        }
      ],
      "name": "deposit",
      "outputs": [],
      "payable": false,
      "stateMutability": "nonpayable",
      "type": "function"
    },
    {
      "constant": false,
      "inputs": [],
      "name": "withdraw",
      "outputs": [],
      "payable": false,
      "stateMutability": "nonpayable",
      "type": "function"
    },
    {
      "constant": false,
      "inputs": [
        {
          "internalType": "address",
          "name": "_oracle",
          "type": "address"
        },
        {
          "internalType": "bytes32",
          "name": "_jobId",
          "type": "bytes32"
        },
        {
          "internalType": "uint256",
          "name": "_payment",
          "type": "uint256"
        }
      ],
      "name": "requestWinner",
      "outputs": [
        {
          "internalType": "bytes32",
          "name": "requestId",
          "type": "bytes32"
        }
      ],
      "payable": false,
      "stateMutability": "nonpayable",
      "type": "function"
    },
    {
      "constant": false,
      "inputs": [],
      "name": "rewardWinner",
      "outputs": [],
      "payable": false,
      "stateMutability": "nonpayable",
      "type": "function"
    },
    {
      "constant": false,
      "inputs": [
        {
          "internalType": "address",
          "name": "_receiver",
          "type": "address"
        }
      ],
      "name": "reward",
      "outputs": [],
      "payable": false,
      "stateMutability": "nonpayable",
      "type": "function"
    },
    {
      "constant": true,
      "inputs": [],
      "name": "token",
      "outputs": [
        {
          "internalType": "contract IERC20",
          "name": "",
          "type": "address"
        }
      ],
      "payable": false,
      "stateMutability": "view",
      "type": "function"
    },
    {
      "constant": true,
      "inputs": [
        {
          "internalType": "address",
          "name": "_addr",
          "type": "address"
        }
      ],
      "name": "balanceOf",
      "outputs": [
        {
          "internalType": "uint256",
          "name": "",
          "type": "uint256"
        }
      ],
      "payable": false,
      "stateMutability": "view",
      "type": "function"
    },
    {
      "constant": false,
      "inputs": [],
      "name": "balance",
      "outputs": [
        {
          "internalType": "uint256",
          "name": "",
          "type": "uint256"
        }
      ],
      "payable": false,
      "stateMutability": "nonpayable",
      "type": "function"
    },
    {
      "constant": false,
      "inputs": [],
      "name": "interestEarned",
      "outputs": [
        {
          "internalType": "uint256",
          "name": "",
          "type": "uint256"
        }
      ],
      "payable": false,
      "stateMutability": "nonpayable",
      "type": "function"
    },
    {
      "constant": true,
      "inputs": [
        {
          "internalType": "uint256",
          "name": "_blocks",
          "type": "uint256"
        }
      ],
      "name": "estimatedInterestRate",
      "outputs": [
        {
          "internalType": "uint256",
          "name": "",
          "type": "uint256"
        }
      ],
      "payable": false,
      "stateMutability": "view",
      "type": "function"
    },
    {
      "constant": true,
      "inputs": [],
      "name": "supplyRatePerBlock",
      "outputs": [
        {
          "internalType": "uint256",
          "name": "",
          "type": "uint256"
        }
      ],
      "payable": false,
      "stateMutability": "view",
      "type": "function"
    }
  ],
  "bytecode": "0x60806040523480156200001157600080fd5b5060405162002eda38038062002eda833981810160405260a08110156200003757600080fd5b810190808051906020019092919080519060200190929190805190602001909291908051906020019092919080519060200190929190505050600073ffffffffffffffffffffffffffffffffffffffff168573ffffffffffffffffffffffffffffffffffffffff16141562000114576040517f08c379a00000000000000000000000000000000000000000000000000000000081526004018080602001828103825260128152602001807f46756e64696e672f6f776e65722d7a65726f000000000000000000000000000081525060200191505060405180910390fd5b600073ffffffffffffffffffffffffffffffffffffffff168473ffffffffffffffffffffffffffffffffffffffff161415620001b8576040517f08c379a00000000000000000000000000000000000000000000000000000000081526004018080602001828103825260138152602001807f46756e64696e672f63746f6b656e2d7a65726f0000000000000000000000000081525060200191505060405180910390fd5b600073ffffffffffffffffffffffffffffffffffffffff168373ffffffffffffffffffffffffffffffffffffffff1614156200025c576040517f08c379a00000000000000000000000000000000000000000000000000000000081526004018080602001828103825260158152602001807f46756e64696e672f6f70657261746f722d7a65726f000000000000000000000081525060200191505060405180910390fd5b62000272856200036260201b620014891760201c565b83609c60006101000a81548173ffffffffffffffffffffffffffffffffffffffff021916908373ffffffffffffffffffffffffffffffffffffffff16021790555082609960006101000a81548173ffffffffffffffffffffffffffffffffffffffff021916908373ffffffffffffffffffffffffffffffffffffffff16021790555081609e60006101000a81548173ffffffffffffffffffffffffffffffffffffffff021916908373ffffffffffffffffffffffffffffffffffffffff16021790555080609b819055506001609e60146101000a81548160ff021916908315150217905550505050505062000545565b600060019054906101000a900460ff16806200038a5750620003896200052e60201b60201c565b5b80620003a257506000809054906101000a900460ff16155b620003f9576040517f08c379a000000000000000000000000000000000000000000000000000000000815260040180806020018281038252602e81526020018062002eac602e913960400191505060405180910390fd5b60008060019054906101000a900460ff1615905080156200044a576001600060016101000a81548160ff02191690831515021790555060016000806101000a81548160ff0219169083151502179055505b81603360006101000a81548173ffffffffffffffffffffffffffffffffffffffff021916908373ffffffffffffffffffffffffffffffffffffffff160217905550603360009054906101000a900473ffffffffffffffffffffffffffffffffffffffff1673ffffffffffffffffffffffffffffffffffffffff16600073ffffffffffffffffffffffffffffffffffffffff167f8be0079c531659141344cd1fd0a4f28419497f9722a3daafe3b4186f6b6457e060405160405180910390a380156200052a5760008060016101000a81548160ff0219169083151502179055505b5050565b6000803090506000813b9050600081149250505090565b61295780620005556000396000f3fe608060405234801561001057600080fd5b506004361061014d5760003560e01c806377bbb757116100c3578063b69ef8a81161007c578063b69ef8a81461049e578063c4d66de8146104bc578063f1215d2514610500578063f2fde38b146105c5578063fc0c546a14610609578063febdb9b8146106535761014d565b806377bbb7571461037e5780637dc0d1d0146103c05780638129fc1c1461040a5780638da5cb5b146104145780638f32d59b1461045e578063ae9d70b0146104805761014d565b8063570ca73511610115578063570ca735146101d85780636353586b1461022257806369e527da146102665780636ff3879d146102b057806370a082311461031c578063715018a6146103745761014d565b80630937eb54146101525780631209b1f614610170578063374261ab1461018e5780633ccfd60b146101ac57806347535d7b146101b6575b600080fd5b61015a61065d565b6040518082815260200191505060405180910390f35b610178610663565b6040518082815260200191505060405180910390f35b610196610669565b6040518082815260200191505060405180910390f35b6101b461068c565b005b6101be6107bb565b604051808215151515815260200191505060405180910390f35b6101e06107ce565b604051808273ffffffffffffffffffffffffffffffffffffffff1673ffffffffffffffffffffffffffffffffffffffff16815260200191505060405180910390f35b6102646004803603602081101561023857600080fd5b81019080803573ffffffffffffffffffffffffffffffffffffffff1690602001909291905050506107f4565b005b61026e610ccc565b604051808273ffffffffffffffffffffffffffffffffffffffff1673ffffffffffffffffffffffffffffffffffffffff16815260200191505060405180910390f35b610306600480360360608110156102c657600080fd5b81019080803573ffffffffffffffffffffffffffffffffffffffff1690602001909291908035906020019092919080359060200190929190505050610cf2565b6040518082815260200191505060405180910390f35b61035e6004803603602081101561033257600080fd5b81019080803573ffffffffffffffffffffffffffffffffffffffff169060200190929190505050610f9f565b6040518082815260200191505060405180910390f35b61037c610fe8565b005b6103aa6004803603602081101561039457600080fd5b8101908080359060200190929190505050611123565b6040518082815260200191505060405180910390f35b6103c8611146565b604051808273ffffffffffffffffffffffffffffffffffffffff1673ffffffffffffffffffffffffffffffffffffffff16815260200191505060405180910390f35b61041261116c565b005b61041c611273565b604051808273ffffffffffffffffffffffffffffffffffffffff1673ffffffffffffffffffffffffffffffffffffffff16815260200191505060405180910390f35b61046661129d565b604051808215151515815260200191505060405180910390f35b6104886112fc565b6040518082815260200191505060405180910390f35b6104a66113a6565b6040518082815260200191505060405180910390f35b6104fe600480360360208110156104d257600080fd5b81019080803573ffffffffffffffffffffffffffffffffffffffff169060200190929190505050611489565b005b6105c36004803603604081101561051657600080fd5b81019080803590602001909291908035906020019064010000000081111561053d57600080fd5b82018360208201111561054f57600080fd5b8035906020019184600183028401116401000000008311171561057157600080fd5b91908080601f016020809104026020016040519081016040528093929190818152602001838380828437600081840152601f19601f820116905080830192505050505050509192919290505050611647565b005b610607600480360360208110156105db57600080fd5b81019080803573ffffffffffffffffffffffffffffffffffffffff169060200190929190505050611a16565b005b610611611a9c565b604051808273ffffffffffffffffffffffffffffffffffffffff1673ffffffffffffffffffffffffffffffffffffffff16815260200191505060405180910390f35b61065b611b46565b005b609a5481565b609b5481565b6000610687609a546106796113a6565b611df390919063ffffffff16565b905090565b6001606660008282540192505081905550600060665490506000609d60003373ffffffffffffffffffffffffffffffffffffffff1673ffffffffffffffffffffffffffffffffffffffff1681526020019081526020016000205490506106f23382611e3d565b3373ffffffffffffffffffffffffffffffffffffffff167f7084f5476618d8e60b11ef0d7d3f06914655adb8793e28ff7f018d4c76d505d5826040518082815260200191505060405180910390a25060665481146107b8576040517f08c379a000000000000000000000000000000000000000000000000000000000815260040180806020018281038252601f8152602001807f5265656e7472616e637947756172643a207265656e7472616e742063616c6c0081525060200191505060405180910390fd5b50565b609e60149054906101000a900460ff1681565b609960009054906101000a900473ffffffffffffffffffffffffffffffffffffffff1681565b609960009054906101000a900473ffffffffffffffffffffffffffffffffffffffff1673ffffffffffffffffffffffffffffffffffffffff163373ffffffffffffffffffffffffffffffffffffffff1614806108825750610853611273565b73ffffffffffffffffffffffffffffffffffffffff163373ffffffffffffffffffffffffffffffffffffffff16145b6108f4576040517f08c379a000000000000000000000000000000000000000000000000000000000815260040180806020018281038252601c8152602001807f46756e64696e672f69732d6f70657461746f722d6f722d6f776e65720000000081525060200191505060405180910390fd5b600073ffffffffffffffffffffffffffffffffffffffff168173ffffffffffffffffffffffffffffffffffffffff161415610997576040517f08c379a00000000000000000000000000000000000000000000000000000000081526004018080602001828103825260158152602001807f46756e64696e672f72656365697665722d7a65726f000000000000000000000081525060200191505060405180910390fd5b60006109a1610669565b90506000811415610a1a576040517f08c379a00000000000000000000000000000000000000000000000000000000081526004018080602001828103825260138152602001807f46756e64696e672f7265776172642d7a65726f0000000000000000000000000081525060200191505060405180910390fd5b6000609c60009054906101000a900473ffffffffffffffffffffffffffffffffffffffff1673ffffffffffffffffffffffffffffffffffffffff1663852a12e3836040518263ffffffff1660e01b815260040180828152602001915050602060405180830381600087803b158015610a9157600080fd5b505af1158015610aa5573d6000803e3d6000fd5b505050506040513d6020811015610abb57600080fd5b810190808051906020019092919050505014610b3f576040517f08c379a000000000000000000000000000000000000000000000000000000000815260040180806020018281038252600e8152602001807f46756e64696e672f72656465656d00000000000000000000000000000000000081525060200191505060405180910390fd5b610b47611a9c565b73ffffffffffffffffffffffffffffffffffffffff1663a9059cbb83836040518363ffffffff1660e01b8152600401808373ffffffffffffffffffffffffffffffffffffffff1673ffffffffffffffffffffffffffffffffffffffff16815260200182815260200192505050602060405180830381600087803b158015610bcd57600080fd5b505af1158015610be1573d6000803e3d6000fd5b505050506040513d6020811015610bf757600080fd5b8101908080519060200190929190505050610c7a576040517f08c379a00000000000000000000000000000000000000000000000000000000081526004018080602001828103825260108152602001807f46756e64696e672f7472616e736665720000000000000000000000000000000081525060200191505060405180910390fd5b8173ffffffffffffffffffffffffffffffffffffffff167fb3b7a071186534c03b40695710096f289fd4ed6c1a374aff0bb648955e4fe563826040518082815260200191505060405180910390a25050565b609c60009054906101000a900473ffffffffffffffffffffffffffffffffffffffff1681565b6000609e60149054906101000a900460ff16610d76576040517f08c379a000000000000000000000000000000000000000000000000000000000815260040180806020018281038252600b8152602001807f467564696e672f6f70656e00000000000000000000000000000000000000000081525060200191505060405180910390fd5b609960009054906101000a900473ffffffffffffffffffffffffffffffffffffffff1673ffffffffffffffffffffffffffffffffffffffff163373ffffffffffffffffffffffffffffffffffffffff161480610e045750610dd5611273565b73ffffffffffffffffffffffffffffffffffffffff163373ffffffffffffffffffffffffffffffffffffffff16145b610e76576040517f08c379a000000000000000000000000000000000000000000000000000000000815260040180806020018281038252601c8152602001807f46756e64696e672f69732d6f70657461746f722d6f722d6f776e65720000000081525060200191505060405180910390fd5b609e60009054906101000a900473ffffffffffffffffffffffffffffffffffffffff1673ffffffffffffffffffffffffffffffffffffffff1663af7e861f308686866040518563ffffffff1660e01b8152600401808573ffffffffffffffffffffffffffffffffffffffff1673ffffffffffffffffffffffffffffffffffffffff1681526020018473ffffffffffffffffffffffffffffffffffffffff1673ffffffffffffffffffffffffffffffffffffffff168152602001838152602001828152602001945050505050602060405180830381600087803b158015610f5b57600080fd5b505af1158015610f6f573d6000803e3d6000fd5b505050506040513d6020811015610f8557600080fd5b810190808051906020019092919050505090509392505050565b6000609d60008373ffffffffffffffffffffffffffffffffffffffff1673ffffffffffffffffffffffffffffffffffffffff168152602001908152602001600020549050919050565b610ff061129d565b611062576040517f08c379a00000000000000000000000000000000000000000000000000000000081526004018080602001828103825260208152602001807f4f776e61626c653a2063616c6c6572206973206e6f7420746865206f776e657281525060200191505060405180910390fd5b600073ffffffffffffffffffffffffffffffffffffffff16603360009054906101000a900473ffffffffffffffffffffffffffffffffffffffff1673ffffffffffffffffffffffffffffffffffffffff167f8be0079c531659141344cd1fd0a4f28419497f9722a3daafe3b4186f6b6457e060405160405180910390a36000603360006101000a81548173ffffffffffffffffffffffffffffffffffffffff021916908373ffffffffffffffffffffffffffffffffffffffff160217905550565b600061113f826111316112fc565b6121cd90919063ffffffff16565b9050919050565b609e60009054906101000a900473ffffffffffffffffffffffffffffffffffffffff1681565b600060019054906101000a900460ff168061118b575061118a612253565b5b806111a257506000809054906101000a900460ff16155b6111f7576040517f08c379a000000000000000000000000000000000000000000000000000000000815260040180806020018281038252602e8152602001806128f5602e913960400191505060405180910390fd5b60008060019054906101000a900460ff161590508015611247576001600060016101000a81548160ff02191690831515021790555060016000806101000a81548160ff0219169083151502179055505b600160668190555080156112705760008060016101000a81548160ff0219169083151502179055505b50565b6000603360009054906101000a900473ffffffffffffffffffffffffffffffffffffffff16905090565b6000603360009054906101000a900473ffffffffffffffffffffffffffffffffffffffff1673ffffffffffffffffffffffffffffffffffffffff166112e061226a565b73ffffffffffffffffffffffffffffffffffffffff1614905090565b6000609c60009054906101000a900473ffffffffffffffffffffffffffffffffffffffff1673ffffffffffffffffffffffffffffffffffffffff1663ae9d70b06040518163ffffffff1660e01b815260040160206040518083038186803b15801561136657600080fd5b505afa15801561137a573d6000803e3d6000fd5b505050506040513d602081101561139057600080fd5b8101908080519060200190929190505050905090565b6000609c60009054906101000a900473ffffffffffffffffffffffffffffffffffffffff1673ffffffffffffffffffffffffffffffffffffffff16633af9e669306040518263ffffffff1660e01b8152600401808273ffffffffffffffffffffffffffffffffffffffff1673ffffffffffffffffffffffffffffffffffffffff168152602001915050602060405180830381600087803b15801561144957600080fd5b505af115801561145d573d6000803e3d6000fd5b505050506040513d602081101561147357600080fd5b8101908080519060200190929190505050905090565b600060019054906101000a900460ff16806114a857506114a7612253565b5b806114bf57506000809054906101000a900460ff16155b611514576040517f08c379a000000000000000000000000000000000000000000000000000000000815260040180806020018281038252602e8152602001806128f5602e913960400191505060405180910390fd5b60008060019054906101000a900460ff161590508015611564576001600060016101000a81548160ff02191690831515021790555060016000806101000a81548160ff0219169083151502179055505b81603360006101000a81548173ffffffffffffffffffffffffffffffffffffffff021916908373ffffffffffffffffffffffffffffffffffffffff160217905550603360009054906101000a900473ffffffffffffffffffffffffffffffffffffffff1673ffffffffffffffffffffffffffffffffffffffff16600073ffffffffffffffffffffffffffffffffffffffff167f8be0079c531659141344cd1fd0a4f28419497f9722a3daafe3b4186f6b6457e060405160405180910390a380156116435760008060016101000a81548160ff0219169083151502179055505b5050565b609e60149054906101000a900460ff166116c9576040517f08c379a000000000000000000000000000000000000000000000000000000000815260040180806020018281038252600b8152602001807f467564696e672f6f70656e00000000000000000000000000000000000000000081525060200191505060405180910390fd5b6001606660008282540192505081905550600060665490506000609b5414806116f45750609b548310155b611766576040517f08c379a00000000000000000000000000000000000000000000000000000000081526004018080602001828103825260148152602001807f46756e64696e672f736d616c6c2d616d6f756e7400000000000000000000000081525060200191505060405180910390fd5b61176e611a9c565b73ffffffffffffffffffffffffffffffffffffffff166323b872dd3330866040518463ffffffff1660e01b8152600401808473ffffffffffffffffffffffffffffffffffffffff1673ffffffffffffffffffffffffffffffffffffffff1681526020018373ffffffffffffffffffffffffffffffffffffffff1673ffffffffffffffffffffffffffffffffffffffff1681526020018281526020019350505050602060405180830381600087803b15801561182857600080fd5b505af115801561183c573d6000803e3d6000fd5b505050506040513d602081101561185257600080fd5b81019080805190602001909291905050506118d5576040517f08c379a000000000000000000000000000000000000000000000000000000000815260040180806020018281038252600e8152602001807f46756e64696e672f742d6661696c00000000000000000000000000000000000081525060200191505060405180910390fd5b6118df3384612272565b3373ffffffffffffffffffffffffffffffffffffffff167f6f85d9948d6ca3dd6ce6ce7d175da22b4e865827ae6fcd530ec7edac1240f92884846040518083815260200180602001828103825283818151815260200191508051906020019080838360005b8381101561195f578082015181840152602081019050611944565b50505050905090810190601f16801561198c5780820380516001836020036101000a031916815260200191505b50935050505060405180910390a26066548114611a11576040517f08c379a000000000000000000000000000000000000000000000000000000000815260040180806020018281038252601f8152602001807f5265656e7472616e637947756172643a207265656e7472616e742063616c6c0081525060200191505060405180910390fd5b505050565b611a1e61129d565b611a90576040517f08c379a00000000000000000000000000000000000000000000000000000000081526004018080602001828103825260208152602001807f4f776e61626c653a2063616c6c6572206973206e6f7420746865206f776e657281525060200191505060405180910390fd5b611a998161261f565b50565b6000609c60009054906101000a900473ffffffffffffffffffffffffffffffffffffffff1673ffffffffffffffffffffffffffffffffffffffff16636f307dc36040518163ffffffff1660e01b815260040160206040518083038186803b158015611b0657600080fd5b505afa158015611b1a573d6000803e3d6000fd5b505050506040513d6020811015611b3057600080fd5b8101908080519060200190929190505050905090565b609e60149054906101000a900460ff16611bc8576040517f08c379a000000000000000000000000000000000000000000000000000000000815260040180806020018281038252600b8152602001807f467564696e672f6f70656e00000000000000000000000000000000000000000081525060200191505060405180910390fd5b6000609e60009054906101000a900473ffffffffffffffffffffffffffffffffffffffff1673ffffffffffffffffffffffffffffffffffffffff166373d4a13a6040518163ffffffff1660e01b815260040160206040518083038186803b158015611c3257600080fd5b505afa158015611c46573d6000803e3d6000fd5b505050506040513d6020811015611c5c57600080fd5b810190808051906020019092919050505060001c90508073ffffffffffffffffffffffffffffffffffffffff16600073ffffffffffffffffffffffffffffffffffffffff161415611d15576040517f08c379a00000000000000000000000000000000000000000000000000000000081526004018080602001828103825260138152602001807f46756e64696e672f77696e6e65722d7a65726f0000000000000000000000000081525060200191505060405180910390fd5b609b54609d60008373ffffffffffffffffffffffffffffffffffffffff1673ffffffffffffffffffffffffffffffffffffffff168152602001908152602001600020541015611dcc576040517f08c379a00000000000000000000000000000000000000000000000000000000081526004018080602001828103825260198152602001807f46756e64696e672f77696e6e65722d6e6f2d6465706f7369740000000000000081525060200191505060405180910390fd5b6000609e60146101000a81548160ff021916908315150217905550611df0816107f4565b50565b6000611e3583836040518060400160405280601e81526020017f536166654d6174683a207375627472616374696f6e206f766572666c6f770000815250612765565b905092915050565b6000609d60008473ffffffffffffffffffffffffffffffffffffffff1673ffffffffffffffffffffffffffffffffffffffff16815260200190815260200160002054905080821115611ef7576040517f08c379a00000000000000000000000000000000000000000000000000000000081526004018080602001828103825260108152602001807f46756e64696e672f6e6f2d66756e64730000000000000000000000000000000081525060200191505060405180910390fd5b611f0a8282611df390919063ffffffff16565b609d60008573ffffffffffffffffffffffffffffffffffffffff1673ffffffffffffffffffffffffffffffffffffffff16815260200190815260200160002081905550611f6282609a54611df390919063ffffffff16565b609a819055506000609c60009054906101000a900473ffffffffffffffffffffffffffffffffffffffff1673ffffffffffffffffffffffffffffffffffffffff1663852a12e3846040518263ffffffff1660e01b815260040180828152602001915050602060405180830381600087803b158015611fdf57600080fd5b505af1158015611ff3573d6000803e3d6000fd5b505050506040513d602081101561200957600080fd5b81019080805190602001909291905050501461208d576040517f08c379a000000000000000000000000000000000000000000000000000000000815260040180806020018281038252600e8152602001807f46756e64696e672f72656465656d00000000000000000000000000000000000081525060200191505060405180910390fd5b612095611a9c565b73ffffffffffffffffffffffffffffffffffffffff1663a9059cbb84846040518363ffffffff1660e01b8152600401808373ffffffffffffffffffffffffffffffffffffffff1673ffffffffffffffffffffffffffffffffffffffff16815260200182815260200192505050602060405180830381600087803b15801561211b57600080fd5b505af115801561212f573d6000803e3d6000fd5b505050506040513d602081101561214557600080fd5b81019080805190602001909291905050506121c8576040517f08c379a00000000000000000000000000000000000000000000000000000000081526004018080602001828103825260108152602001807f46756e64696e672f7472616e736665720000000000000000000000000000000081525060200191505060405180910390fd5b505050565b6000808314156121e0576000905061224d565b60008284029050828482816121f157fe5b0414612248576040517f08c379a00000000000000000000000000000000000000000000000000000000081526004018080602001828103825260218152602001806128d46021913960400191505060405180910390fd5b809150505b92915050565b6000803090506000813b9050600081149250505090565b600033905090565b60008114156122e9576040517f08c379a00000000000000000000000000000000000000000000000000000000081526004018080602001828103825260148152602001807f46756e64696e672f6465706f7369742d7a65726f00000000000000000000000081525060200191505060405180910390fd5b61233b81609d60008573ffffffffffffffffffffffffffffffffffffffff1673ffffffffffffffffffffffffffffffffffffffff1681526020019081526020016000205461282590919063ffffffff16565b609d60008473ffffffffffffffffffffffffffffffffffffffff1673ffffffffffffffffffffffffffffffffffffffff1681526020019081526020016000208190555061239381609a5461282590919063ffffffff16565b609a819055506123a1611a9c565b73ffffffffffffffffffffffffffffffffffffffff1663095ea7b3609c60009054906101000a900473ffffffffffffffffffffffffffffffffffffffff16836040518363ffffffff1660e01b8152600401808373ffffffffffffffffffffffffffffffffffffffff1673ffffffffffffffffffffffffffffffffffffffff16815260200182815260200192505050602060405180830381600087803b15801561244957600080fd5b505af115801561245d573d6000803e3d6000fd5b505050506040513d602081101561247357600080fd5b81019080805190602001909291905050506124f6576040517f08c379a000000000000000000000000000000000000000000000000000000000815260040180806020018281038252600f8152602001807f46756e64696e672f617070726f7665000000000000000000000000000000000081525060200191505060405180910390fd5b6000609c60009054906101000a900473ffffffffffffffffffffffffffffffffffffffff1673ffffffffffffffffffffffffffffffffffffffff1663a0712d68836040518263ffffffff1660e01b815260040180828152602001915050602060405180830381600087803b15801561256d57600080fd5b505af1158015612581573d6000803e3d6000fd5b505050506040513d602081101561259757600080fd5b81019080805190602001909291905050501461261b576040517f08c379a000000000000000000000000000000000000000000000000000000000815260040180806020018281038252600e8152602001807f46756e64696e672f737570706c7900000000000000000000000000000000000081525060200191505060405180910390fd5b5050565b600073ffffffffffffffffffffffffffffffffffffffff168173ffffffffffffffffffffffffffffffffffffffff1614156126a5576040517f08c379a00000000000000000000000000000000000000000000000000000000081526004018080602001828103825260268152602001806128ae6026913960400191505060405180910390fd5b8073ffffffffffffffffffffffffffffffffffffffff16603360009054906101000a900473ffffffffffffffffffffffffffffffffffffffff1673ffffffffffffffffffffffffffffffffffffffff167f8be0079c531659141344cd1fd0a4f28419497f9722a3daafe3b4186f6b6457e060405160405180910390a380603360006101000a81548173ffffffffffffffffffffffffffffffffffffffff021916908373ffffffffffffffffffffffffffffffffffffffff16021790555050565b6000838311158290612812576040517f08c379a00000000000000000000000000000000000000000000000000000000081526004018080602001828103825283818151815260200191508051906020019080838360005b838110156127d75780820151818401526020810190506127bc565b50505050905090810190601f1680156128045780820380516001836020036101000a031916815260200191505b509250505060405180910390fd5b5060008385039050809150509392505050565b6000808284019050838110156128a3576040517f08c379a000000000000000000000000000000000000000000000000000000000815260040180806020018281038252601b8152602001807f536166654d6174683a206164646974696f6e206f766572666c6f77000000000081525060200191505060405180910390fd5b809150509291505056fe4f776e61626c653a206e6577206f776e657220697320746865207a65726f2061646472657373536166654d6174683a206d756c7469706c69636174696f6e206f766572666c6f77436f6e747261637420696e7374616e63652068617320616c7265616479206265656e20696e697469616c697a6564a265627a7a723158205179de333897738a08864fc12f0efa9cc82eb5e1d53359d669adcb7e42f7fd5c64736f6c63430005100032436f6e747261637420696e7374616e63652068617320616c7265616479206265656e20696e697469616c697a6564",
  "source": "pragma solidity ^0.5.0;\n\nimport \"@openzeppelin/contracts-ethereum-package/contracts/ownership/Ownable.sol\";\nimport \"@openzeppelin/contracts-ethereum-package/contracts/token/ERC20/IERC20.sol\";\nimport \"@openzeppelin/contracts-ethereum-package/contracts/math/SafeMath.sol\";\nimport \"@openzeppelin/contracts-ethereum-package/contracts/utils/ReentrancyGuard.sol\";\nimport \"@openzeppelin/upgrades/contracts/Initializable.sol\";\n// import \"@chainlink/contracts/src/v0.5/ChainlinkClient.sol\";\n\nimport \"./FundingOracleClient.sol\";\nimport \"../compound/ICErc20.sol\";\n\n\ncontract Funding is Ownable, ReentrancyGuard {\n    using SafeMath for uint256;\n\n    /**\n     * Emitted when a user deposits into the Pool.\n     * @param sender The purchaser of the tickets\n     * @param amount The size of the deposit\n     */\n    event Deposited(address indexed sender, uint256 amount, string userId);\n\n    /**\n     * Emitted when a user withdraws from the pool.\n     * @param sender The user that is withdrawing from the pool\n     * @param amount The amount that the user withdrew\n     */\n    event Withdrawn(address indexed sender, uint256 amount);\n\n    /**\n     * Emitted when a draw is rewarded.\n     * @param receiver The address of the reward receiver\n     * @param amount The amount of the win\n     */\n    event Rewarded(address indexed receiver, uint256 amount);\n\n    /**\n     * Contract's operator\n     */\n    address public operator;\n\n    /**\n     * The total of all balances\n     */\n    uint256 public accountedBalance;\n\n    /**\n     * Ticket price to be participate in the pool\n     */\n    uint256 public ticketPrice;\n\n    /**\n     * The Compound cToken that this Pool is bound to.\n     */\n    ICErc20 public cToken;\n\n    /**\n     * The total deposits for each user.\n     */\n    mapping(address => uint256) internal balances;\n\n    /**\n     * Oracle\n     */\n    FundingOracleClient public oracle;\n\n    bool public isOpen;\n\n    modifier onlyOperator() {\n        require(msg.sender == operator, \"Funding/is-opetator\");\n        _;\n    }\n\n    modifier onlyOperatorOrOwner() {\n        require(\n            msg.sender == operator || msg.sender == owner(),\n            \"Funding/is-opetator-or-owner\"\n        );\n        _;\n    }\n\n    modifier open() {\n      require(isOpen, \"Fuding/open\");\n      _;\n    }\n\n    constructor(\n        address _owner,\n        address _cToken,\n        address _operator,\n        address _oracle,\n        uint256 _ticketPrice\n    ) public {\n        require(_owner != address(0), \"Funding/owner-zero\");\n        require(_cToken != address(0), \"Funding/ctoken-zero\");\n        require(_operator != address(0), \"Funding/operator-zero\");\n\n        Ownable.initialize(_owner);\n        cToken = ICErc20(_cToken);\n        operator = _operator;\n        oracle = FundingOracleClient(_oracle);\n\n        ticketPrice = _ticketPrice;\n        isOpen = true;\n    }\n\n    function deposit(uint256 _amount, string memory _userId)\n        public\n        open\n        nonReentrant\n    {\n        require(\n            ticketPrice == 0 || _amount >= ticketPrice,\n            \"Funding/small-amount\"\n        );\n        // Transfer the tokens into this contract\n        require(\n            token().transferFrom(msg.sender, address(this), _amount),\n            \"Funding/t-fail\"\n        );\n\n        // Deposit the funds\n        _depositFrom(msg.sender, _amount);\n\n        emit Deposited(msg.sender, _amount, _userId);\n    }\n\n    /**\n     * @notice Withdraw the sender's entire balance back to them.\n     */\n    function withdraw() public nonReentrant {\n        uint256 balance = balances[msg.sender];\n        _withdraw(msg.sender, balance);\n\n        emit Withdrawn(msg.sender, balance);\n    }\n\n    function requestWinner(address _oracle, bytes32 _jobId, uint256 _payment)\n        public\n        open\n        onlyOperatorOrOwner returns (bytes32 requestId)\n    {\n        requestId = oracle.requestWinner(address(this), _oracle, _jobId, _payment);\n    }\n\n    function rewardWinner() public open {\n      address winningAddress = address(uint160(uint256(oracle.data())));\n      require(address(0) != winningAddress, \"Funding/winner-zero\");\n      require(balances[winningAddress] >= ticketPrice, \"Funding/winner-no-deposit\");\n      isOpen = false;\n      reward(winningAddress);\n    }\n\n    /**\n     * @notice Deposits into the pool for a user.  Updates their balance and transfers their tokens into this contract.\n     * @param _spender The user who is depositing\n     * @param _amount The amount they are depositing\n     */\n    function _depositFrom(address _spender, uint256 _amount) internal {\n        require(_amount != 0, \"Funding/deposit-zero\");\n        // Update the user's balance\n        balances[_spender] = balances[_spender].add(_amount);\n\n        // Update the total of this contract\n        accountedBalance = accountedBalance.add(_amount);\n\n        // Deposit into Compound\n        require(token().approve(address(cToken), _amount), \"Funding/approve\");\n        require(cToken.mint(_amount) == 0, \"Funding/supply\");\n    }\n\n    /**\n     * @notice Transfers tokens from the cToken contract to the sender.  Updates the accounted balance.\n     */\n    function _withdraw(address _sender, uint256 _amount) internal {\n        uint256 balance = balances[_sender];\n\n        require(_amount <= balance, \"Funding/no-funds\");\n\n        // Update the user's balance\n        balances[_sender] = balance.sub(_amount);\n\n        // Update the total of this contract\n        accountedBalance = accountedBalance.sub(_amount);\n\n        // Withdraw from Compound and transfer\n        require(cToken.redeemUnderlying(_amount) == 0, \"Funding/redeem\");\n        require(token().transfer(_sender, _amount), \"Funding/transfer\");\n    }\n\n    function reward(address _receiver) public onlyOperatorOrOwner {\n        require(_receiver != address(0), \"Funding/receiver-zero\");\n\n        uint256 amount = interestEarned();\n        require(amount != 0, \"Funding/reward-zero\");\n\n        require(cToken.redeemUnderlying(amount) == 0, \"Funding/redeem\");\n        require(token().transfer(_receiver, amount), \"Funding/transfer\");\n\n        emit Rewarded(_receiver, amount);\n    }\n\n    /**\n     * @notice Returns the token underlying the cToken.\n     * @return An ERC20 token address\n     */\n    function token() public view returns (IERC20) {\n        return IERC20(cToken.underlying());\n    }\n\n    /**\n     * @notice Returns a user's total balance.  This includes their sponsorships, fees, open deposits, and committed deposits.\n     * @param _addr The address of the user to check.\n     * @return The user's current balance.\n     */\n    function balanceOf(address _addr) external view returns (uint256) {\n        return balances[_addr];\n    }\n\n    /**\n     * @notice Returns the underlying balance of this contract in the cToken.\n     * @return The cToken underlying balance for this contract.\n     */\n    function balance() public returns (uint256) {\n        return cToken.balanceOfUnderlying(address(this));\n    }\n\n    /**\n     * @notice Returns the interest earned by the contract till now\n     * @return The cToken underlying balance for this contract minus the deposited balance.\n     */\n    function interestEarned() public returns (uint256) {\n        return balance().sub(accountedBalance);\n    }\n\n    /**\n     * @notice Calculates the total estimated interest earned for the given number of blocks\n     * @param _blocks The number of block that interest accrued for\n     * @return The total estimated interest as a 18 point fixed decimal.\n     */\n    function estimatedInterestRate(uint256 _blocks)\n        public\n        view\n        returns (uint256)\n    {\n        return supplyRatePerBlock().mul(_blocks);\n    }\n\n    /**\n     * @notice Convenience function to return the supplyRatePerBlock value from the money market contract.\n     * @return The cToken supply rate per block\n     */\n    function supplyRatePerBlock() public view returns (uint256) {\n        return cToken.supplyRatePerBlock();\n    }\n}\n",
  "sourcePath": "/Users/leon/workspace/genie/genie-contracts/contracts/funding/Funding.sol",
  "compiler": {
    "name": "solc",
    "version": "0.5.16+commit.9c3226ce.Emscripten.clang"
  },
  "schemaVersion": "3.1.0",
  "updatedAt": "2020-05-20T13:05:28.629Z",
  "devdoc": {
    "methods": {
      "balance()": {
        "return": "The cToken underlying balance for this contract."
      },
      "balanceOf(address)": {
        "params": {
          "_addr": "The address of the user to check."
        },
        "return": "The user's current balance."
      },
      "estimatedInterestRate(uint256)": {
        "params": {
          "_blocks": "The number of block that interest accrued for"
        },
        "return": "The total estimated interest as a 18 point fixed decimal."
      },
      "initialize(address)": {
        "details": "Initializes the contract setting the deployer as the initial owner."
      },
      "interestEarned()": {
        "return": "The cToken underlying balance for this contract minus the deposited balance."
      },
      "isOwner()": {
        "details": "Returns true if the caller is the current owner."
      },
      "owner()": {
        "details": "Returns the address of the current owner."
      },
      "renounceOwnership()": {
        "details": "Leaves the contract without owner. It will not be possible to call `onlyOwner` functions anymore. Can only be called by the current owner.     * > Note: Renouncing ownership will leave the contract without an owner, thereby removing any functionality that is only available to the owner."
      },
      "supplyRatePerBlock()": {
        "return": "The cToken supply rate per block"
      },
      "token()": {
        "return": "An ERC20 token address"
      },
      "transferOwnership(address)": {
        "details": "Transfers ownership of the contract to a new account (`newOwner`). Can only be called by the current owner."
      }
    }
  },
  "userdoc": {
    "methods": {
      "balance()": {
        "notice": "Returns the underlying balance of this contract in the cToken."
      },
      "balanceOf(address)": {
        "notice": "Returns a user's total balance.  This includes their sponsorships, fees, open deposits, and committed deposits."
      },
      "estimatedInterestRate(uint256)": {
        "notice": "Calculates the total estimated interest earned for the given number of blocks"
      },
      "interestEarned()": {
        "notice": "Returns the interest earned by the contract till now"
      },
      "supplyRatePerBlock()": {
        "notice": "Convenience function to return the supplyRatePerBlock value from the money market contract."
      },
      "token()": {
        "notice": "Returns the token underlying the cToken."
      },
      "withdraw()": {
        "notice": "Withdraw the sender's entire balance back to them."
      }
    }
  }
}