{
  "contractName": "Funding",
  "abi": [
    {
      "inputs": [
        {
          "internalType": "address",
          "name": "_owner",
          "type": "address"
        },
        {
          "internalType": "address",
          "name": "_cToken",
          "type": "address"
        },
        {
          "internalType": "address",
          "name": "_operator",
          "type": "address"
        },
        {
          "internalType": "address",
          "name": "_oracle",
          "type": "address"
        },
        {
          "internalType": "uint256",
          "name": "_ticketPrice",
          "type": "uint256"
        }
      ],
      "payable": false,
      "stateMutability": "nonpayable",
      "type": "constructor"
    },
    {
      "anonymous": false,
      "inputs": [
        {
          "indexed": true,
          "internalType": "address",
          "name": "sender",
          "type": "address"
        },
        {
          "indexed": false,
          "internalType": "uint256",
          "name": "amount",
          "type": "uint256"
        },
        {
          "indexed": false,
          "internalType": "string",
          "name": "userId",
          "type": "string"
        }
      ],
      "name": "Deposited",
      "type": "event"
    },
    {
      "anonymous": false,
      "inputs": [
        {
          "indexed": true,
          "internalType": "address",
          "name": "previousOwner",
          "type": "address"
        },
        {
          "indexed": true,
          "internalType": "address",
          "name": "newOwner",
          "type": "address"
        }
      ],
      "name": "OwnershipTransferred",
      "type": "event"
    },
    {
      "anonymous": false,
      "inputs": [
        {
          "indexed": true,
          "internalType": "address",
          "name": "receiver",
          "type": "address"
        },
        {
          "indexed": false,
          "internalType": "uint256",
          "name": "amount",
          "type": "uint256"
        }
      ],
      "name": "Rewarded",
      "type": "event"
    },
    {
      "anonymous": false,
      "inputs": [
        {
          "indexed": true,
          "internalType": "address",
          "name": "sender",
          "type": "address"
        },
        {
          "indexed": false,
          "internalType": "uint256",
          "name": "amount",
          "type": "uint256"
        }
      ],
      "name": "Withdrawn",
      "type": "event"
    },
    {
      "constant": true,
      "inputs": [],
      "name": "accountedBalance",
      "outputs": [
        {
          "internalType": "uint256",
          "name": "",
          "type": "uint256"
        }
      ],
      "payable": false,
      "stateMutability": "view",
      "type": "function"
    },
    {
      "constant": true,
      "inputs": [],
      "name": "cToken",
      "outputs": [
        {
          "internalType": "contract ICErc20",
          "name": "",
          "type": "address"
        }
      ],
      "payable": false,
      "stateMutability": "view",
      "type": "function"
    },
    {
      "constant": false,
      "inputs": [],
      "name": "initialize",
      "outputs": [],
      "payable": false,
      "stateMutability": "nonpayable",
      "type": "function"
    },
    {
      "constant": false,
      "inputs": [
        {
          "internalType": "address",
          "name": "sender",
          "type": "address"
        }
      ],
      "name": "initialize",
      "outputs": [],
      "payable": false,
      "stateMutability": "nonpayable",
      "type": "function"
    },
    {
      "constant": true,
      "inputs": [],
      "name": "isOpen",
      "outputs": [
        {
          "internalType": "bool",
          "name": "",
          "type": "bool"
        }
      ],
      "payable": false,
      "stateMutability": "view",
      "type": "function"
    },
    {
      "constant": true,
      "inputs": [],
      "name": "isOwner",
      "outputs": [
        {
          "internalType": "bool",
          "name": "",
          "type": "bool"
        }
      ],
      "payable": false,
      "stateMutability": "view",
      "type": "function"
    },
    {
      "constant": true,
      "inputs": [],
      "name": "operator",
      "outputs": [
        {
          "internalType": "address",
          "name": "",
          "type": "address"
        }
      ],
      "payable": false,
      "stateMutability": "view",
      "type": "function"
    },
    {
      "constant": true,
      "inputs": [],
      "name": "oracle",
      "outputs": [
        {
          "internalType": "contract FundingOracleClient",
          "name": "",
          "type": "address"
        }
      ],
      "payable": false,
      "stateMutability": "view",
      "type": "function"
    },
    {
      "constant": true,
      "inputs": [],
      "name": "owner",
      "outputs": [
        {
          "internalType": "address",
          "name": "",
          "type": "address"
        }
      ],
      "payable": false,
      "stateMutability": "view",
      "type": "function"
    },
    {
      "constant": false,
      "inputs": [],
      "name": "renounceOwnership",
      "outputs": [],
      "payable": false,
      "stateMutability": "nonpayable",
      "type": "function"
    },
    {
      "constant": true,
      "inputs": [],
      "name": "ticketPrice",
      "outputs": [
        {
          "internalType": "uint256",
          "name": "",
          "type": "uint256"
        }
      ],
      "payable": false,
      "stateMutability": "view",
      "type": "function"
    },
    {
      "constant": false,
      "inputs": [
        {
          "internalType": "address",
          "name": "newOwner",
          "type": "address"
        }
      ],
      "name": "transferOwnership",
      "outputs": [],
      "payable": false,
      "stateMutability": "nonpayable",
      "type": "function"
    },
    {
      "constant": false,
      "inputs": [
        {
          "internalType": "uint256",
          "name": "_amount",
          "type": "uint256"
        },
        {
          "internalType": "string",
          "name": "_userId",
          "type": "string"
        }
      ],
      "name": "deposit",
      "outputs": [],
      "payable": false,
      "stateMutability": "nonpayable",
      "type": "function"
    },
    {
      "constant": false,
      "inputs": [],
      "name": "withdraw",
      "outputs": [],
      "payable": false,
      "stateMutability": "nonpayable",
      "type": "function"
    },
    {
      "constant": false,
      "inputs": [
        {
          "internalType": "uint256",
          "name": "_payment",
          "type": "uint256"
        }
      ],
      "name": "requestWinner",
      "outputs": [
        {
          "internalType": "bytes32",
          "name": "requestId",
          "type": "bytes32"
        }
      ],
      "payable": false,
      "stateMutability": "nonpayable",
      "type": "function"
    },
    {
      "constant": false,
      "inputs": [],
      "name": "rewardWinner",
      "outputs": [],
      "payable": false,
      "stateMutability": "nonpayable",
      "type": "function"
    },
    {
      "constant": false,
      "inputs": [
        {
          "internalType": "address",
          "name": "_receiver",
          "type": "address"
        }
      ],
      "name": "reward",
      "outputs": [],
      "payable": false,
      "stateMutability": "nonpayable",
      "type": "function"
    },
    {
      "constant": true,
      "inputs": [],
      "name": "token",
      "outputs": [
        {
          "internalType": "contract IERC20",
          "name": "",
          "type": "address"
        }
      ],
      "payable": false,
      "stateMutability": "view",
      "type": "function"
    },
    {
      "constant": true,
      "inputs": [
        {
          "internalType": "address",
          "name": "_addr",
          "type": "address"
        }
      ],
      "name": "balanceOf",
      "outputs": [
        {
          "internalType": "uint256",
          "name": "",
          "type": "uint256"
        }
      ],
      "payable": false,
      "stateMutability": "view",
      "type": "function"
    },
    {
      "constant": false,
      "inputs": [],
      "name": "balance",
      "outputs": [
        {
          "internalType": "uint256",
          "name": "",
          "type": "uint256"
        }
      ],
      "payable": false,
      "stateMutability": "nonpayable",
      "type": "function"
    },
    {
      "constant": false,
      "inputs": [],
      "name": "interestEarned",
      "outputs": [
        {
          "internalType": "uint256",
          "name": "",
          "type": "uint256"
        }
      ],
      "payable": false,
      "stateMutability": "nonpayable",
      "type": "function"
    },
    {
      "constant": true,
      "inputs": [
        {
          "internalType": "uint256",
          "name": "_blocks",
          "type": "uint256"
        }
      ],
      "name": "estimatedInterestRate",
      "outputs": [
        {
          "internalType": "uint256",
          "name": "",
          "type": "uint256"
        }
      ],
      "payable": false,
      "stateMutability": "view",
      "type": "function"
    },
    {
      "constant": true,
      "inputs": [],
      "name": "supplyRatePerBlock",
      "outputs": [
        {
          "internalType": "uint256",
          "name": "",
          "type": "uint256"
        }
      ],
      "payable": false,
      "stateMutability": "view",
      "type": "function"
    }
  ],
  "bytecode": "0x60806040523480156200001157600080fd5b5060405162002e7238038062002e72833981810160405260a08110156200003757600080fd5b810190808051906020019092919080519060200190929190805190602001909291908051906020019092919080519060200190929190505050600073ffffffffffffffffffffffffffffffffffffffff168573ffffffffffffffffffffffffffffffffffffffff16141562000114576040517f08c379a00000000000000000000000000000000000000000000000000000000081526004018080602001828103825260128152602001807f46756e64696e672f6f776e65722d7a65726f000000000000000000000000000081525060200191505060405180910390fd5b600073ffffffffffffffffffffffffffffffffffffffff168473ffffffffffffffffffffffffffffffffffffffff161415620001b8576040517f08c379a00000000000000000000000000000000000000000000000000000000081526004018080602001828103825260138152602001807f46756e64696e672f63746f6b656e2d7a65726f0000000000000000000000000081525060200191505060405180910390fd5b600073ffffffffffffffffffffffffffffffffffffffff168373ffffffffffffffffffffffffffffffffffffffff1614156200025c576040517f08c379a00000000000000000000000000000000000000000000000000000000081526004018080602001828103825260158152602001807f46756e64696e672f6f70657261746f722d7a65726f000000000000000000000081525060200191505060405180910390fd5b62000272856200036260201b620014211760201c565b83609c60006101000a81548173ffffffffffffffffffffffffffffffffffffffff021916908373ffffffffffffffffffffffffffffffffffffffff16021790555082609960006101000a81548173ffffffffffffffffffffffffffffffffffffffff021916908373ffffffffffffffffffffffffffffffffffffffff16021790555081609e60006101000a81548173ffffffffffffffffffffffffffffffffffffffff021916908373ffffffffffffffffffffffffffffffffffffffff16021790555080609b819055506001609e60146101000a81548160ff021916908315150217905550505050505062000545565b600060019054906101000a900460ff16806200038a5750620003896200052e60201b60201c565b5b80620003a257506000809054906101000a900460ff16155b620003f9576040517f08c379a000000000000000000000000000000000000000000000000000000000815260040180806020018281038252602e81526020018062002e44602e913960400191505060405180910390fd5b60008060019054906101000a900460ff1615905080156200044a576001600060016101000a81548160ff02191690831515021790555060016000806101000a81548160ff0219169083151502179055505b81603360006101000a81548173ffffffffffffffffffffffffffffffffffffffff021916908373ffffffffffffffffffffffffffffffffffffffff160217905550603360009054906101000a900473ffffffffffffffffffffffffffffffffffffffff1673ffffffffffffffffffffffffffffffffffffffff16600073ffffffffffffffffffffffffffffffffffffffff167f8be0079c531659141344cd1fd0a4f28419497f9722a3daafe3b4186f6b6457e060405160405180910390a380156200052a5760008060016101000a81548160ff0219169083151502179055505b5050565b6000803090506000813b9050600081149250505090565b6128ef80620005556000396000f3fe608060405234801561001057600080fd5b506004361061014d5760003560e01c806377bbb757116100c3578063b69ef8a81161007c578063b69ef8a814610474578063c4d66de814610492578063f1215d25146104d6578063f2fde38b1461059b578063fc0c546a146105df578063febdb9b8146106295761014d565b806377bbb757146103545780637dc0d1d0146103965780638129fc1c146103e05780638da5cb5b146103ea5780638f32d59b14610434578063ae9d70b0146104565761014d565b806347535d7b1161011557806347535d7b146101f8578063570ca7351461021a5780636353586b1461026457806369e527da146102a857806370a08231146102f2578063715018a61461034a5761014d565b806303bc7960146101525780630937eb54146101945780631209b1f6146101b2578063374261ab146101d05780633ccfd60b146101ee575b600080fd5b61017e6004803603602081101561016857600080fd5b8101908080359060200190929190505050610633565b6040518082815260200191505060405180910390f35b61019c6108a2565b6040518082815260200191505060405180910390f35b6101ba6108a8565b6040518082815260200191505060405180910390f35b6101d86108ae565b6040518082815260200191505060405180910390f35b6101f66108d1565b005b610200610a00565b604051808215151515815260200191505060405180910390f35b610222610a13565b604051808273ffffffffffffffffffffffffffffffffffffffff1673ffffffffffffffffffffffffffffffffffffffff16815260200191505060405180910390f35b6102a66004803603602081101561027a57600080fd5b81019080803573ffffffffffffffffffffffffffffffffffffffff169060200190929190505050610a39565b005b6102b0610f11565b604051808273ffffffffffffffffffffffffffffffffffffffff1673ffffffffffffffffffffffffffffffffffffffff16815260200191505060405180910390f35b6103346004803603602081101561030857600080fd5b81019080803573ffffffffffffffffffffffffffffffffffffffff169060200190929190505050610f37565b6040518082815260200191505060405180910390f35b610352610f80565b005b6103806004803603602081101561036a57600080fd5b81019080803590602001909291905050506110bb565b6040518082815260200191505060405180910390f35b61039e6110de565b604051808273ffffffffffffffffffffffffffffffffffffffff1673ffffffffffffffffffffffffffffffffffffffff16815260200191505060405180910390f35b6103e8611104565b005b6103f261120b565b604051808273ffffffffffffffffffffffffffffffffffffffff1673ffffffffffffffffffffffffffffffffffffffff16815260200191505060405180910390f35b61043c611235565b604051808215151515815260200191505060405180910390f35b61045e611294565b6040518082815260200191505060405180910390f35b61047c61133e565b6040518082815260200191505060405180910390f35b6104d4600480360360208110156104a857600080fd5b81019080803573ffffffffffffffffffffffffffffffffffffffff169060200190929190505050611421565b005b610599600480360360408110156104ec57600080fd5b81019080803590602001909291908035906020019064010000000081111561051357600080fd5b82018360208201111561052557600080fd5b8035906020019184600183028401116401000000008311171561054757600080fd5b91908080601f016020809104026020016040519081016040528093929190818152602001838380828437600081840152601f19601f8201169050808301925050505050505091929192905050506115df565b005b6105dd600480360360208110156105b157600080fd5b81019080803573ffffffffffffffffffffffffffffffffffffffff1690602001909291905050506119ae565b005b6105e7611a34565b604051808273ffffffffffffffffffffffffffffffffffffffff1673ffffffffffffffffffffffffffffffffffffffff16815260200191505060405180910390f35b610631611ade565b005b6000609e60149054906101000a900460ff166106b7576040517f08c379a000000000000000000000000000000000000000000000000000000000815260040180806020018281038252600b8152602001807f467564696e672f6f70656e00000000000000000000000000000000000000000081525060200191505060405180910390fd5b609960009054906101000a900473ffffffffffffffffffffffffffffffffffffffff1673ffffffffffffffffffffffffffffffffffffffff163373ffffffffffffffffffffffffffffffffffffffff161480610745575061071661120b565b73ffffffffffffffffffffffffffffffffffffffff163373ffffffffffffffffffffffffffffffffffffffff16145b6107b7576040517f08c379a000000000000000000000000000000000000000000000000000000000815260040180806020018281038252601c8152602001807f46756e64696e672f69732d6f70657461746f722d6f722d6f776e65720000000081525060200191505060405180910390fd5b609e60009054906101000a900473ffffffffffffffffffffffffffffffffffffffff1673ffffffffffffffffffffffffffffffffffffffff16631f80d66c30846040518363ffffffff1660e01b8152600401808373ffffffffffffffffffffffffffffffffffffffff1673ffffffffffffffffffffffffffffffffffffffff16815260200182815260200192505050602060405180830381600087803b15801561086057600080fd5b505af1158015610874573d6000803e3d6000fd5b505050506040513d602081101561088a57600080fd5b81019080805190602001909291905050509050919050565b609a5481565b609b5481565b60006108cc609a546108be61133e565b611d8b90919063ffffffff16565b905090565b6001606660008282540192505081905550600060665490506000609d60003373ffffffffffffffffffffffffffffffffffffffff1673ffffffffffffffffffffffffffffffffffffffff1681526020019081526020016000205490506109373382611dd5565b3373ffffffffffffffffffffffffffffffffffffffff167f7084f5476618d8e60b11ef0d7d3f06914655adb8793e28ff7f018d4c76d505d5826040518082815260200191505060405180910390a25060665481146109fd576040517f08c379a000000000000000000000000000000000000000000000000000000000815260040180806020018281038252601f8152602001807f5265656e7472616e637947756172643a207265656e7472616e742063616c6c0081525060200191505060405180910390fd5b50565b609e60149054906101000a900460ff1681565b609960009054906101000a900473ffffffffffffffffffffffffffffffffffffffff1681565b609960009054906101000a900473ffffffffffffffffffffffffffffffffffffffff1673ffffffffffffffffffffffffffffffffffffffff163373ffffffffffffffffffffffffffffffffffffffff161480610ac75750610a9861120b565b73ffffffffffffffffffffffffffffffffffffffff163373ffffffffffffffffffffffffffffffffffffffff16145b610b39576040517f08c379a000000000000000000000000000000000000000000000000000000000815260040180806020018281038252601c8152602001807f46756e64696e672f69732d6f70657461746f722d6f722d6f776e65720000000081525060200191505060405180910390fd5b600073ffffffffffffffffffffffffffffffffffffffff168173ffffffffffffffffffffffffffffffffffffffff161415610bdc576040517f08c379a00000000000000000000000000000000000000000000000000000000081526004018080602001828103825260158152602001807f46756e64696e672f72656365697665722d7a65726f000000000000000000000081525060200191505060405180910390fd5b6000610be66108ae565b90506000811415610c5f576040517f08c379a00000000000000000000000000000000000000000000000000000000081526004018080602001828103825260138152602001807f46756e64696e672f7265776172642d7a65726f0000000000000000000000000081525060200191505060405180910390fd5b6000609c60009054906101000a900473ffffffffffffffffffffffffffffffffffffffff1673ffffffffffffffffffffffffffffffffffffffff1663852a12e3836040518263ffffffff1660e01b815260040180828152602001915050602060405180830381600087803b158015610cd657600080fd5b505af1158015610cea573d6000803e3d6000fd5b505050506040513d6020811015610d0057600080fd5b810190808051906020019092919050505014610d84576040517f08c379a000000000000000000000000000000000000000000000000000000000815260040180806020018281038252600e8152602001807f46756e64696e672f72656465656d00000000000000000000000000000000000081525060200191505060405180910390fd5b610d8c611a34565b73ffffffffffffffffffffffffffffffffffffffff1663a9059cbb83836040518363ffffffff1660e01b8152600401808373ffffffffffffffffffffffffffffffffffffffff1673ffffffffffffffffffffffffffffffffffffffff16815260200182815260200192505050602060405180830381600087803b158015610e1257600080fd5b505af1158015610e26573d6000803e3d6000fd5b505050506040513d6020811015610e3c57600080fd5b8101908080519060200190929190505050610ebf576040517f08c379a00000000000000000000000000000000000000000000000000000000081526004018080602001828103825260108152602001807f46756e64696e672f7472616e736665720000000000000000000000000000000081525060200191505060405180910390fd5b8173ffffffffffffffffffffffffffffffffffffffff167fb3b7a071186534c03b40695710096f289fd4ed6c1a374aff0bb648955e4fe563826040518082815260200191505060405180910390a25050565b609c60009054906101000a900473ffffffffffffffffffffffffffffffffffffffff1681565b6000609d60008373ffffffffffffffffffffffffffffffffffffffff1673ffffffffffffffffffffffffffffffffffffffff168152602001908152602001600020549050919050565b610f88611235565b610ffa576040517f08c379a00000000000000000000000000000000000000000000000000000000081526004018080602001828103825260208152602001807f4f776e61626c653a2063616c6c6572206973206e6f7420746865206f776e657281525060200191505060405180910390fd5b600073ffffffffffffffffffffffffffffffffffffffff16603360009054906101000a900473ffffffffffffffffffffffffffffffffffffffff1673ffffffffffffffffffffffffffffffffffffffff167f8be0079c531659141344cd1fd0a4f28419497f9722a3daafe3b4186f6b6457e060405160405180910390a36000603360006101000a81548173ffffffffffffffffffffffffffffffffffffffff021916908373ffffffffffffffffffffffffffffffffffffffff160217905550565b60006110d7826110c9611294565b61216590919063ffffffff16565b9050919050565b609e60009054906101000a900473ffffffffffffffffffffffffffffffffffffffff1681565b600060019054906101000a900460ff168061112357506111226121eb565b5b8061113a57506000809054906101000a900460ff16155b61118f576040517f08c379a000000000000000000000000000000000000000000000000000000000815260040180806020018281038252602e81526020018061288d602e913960400191505060405180910390fd5b60008060019054906101000a900460ff1615905080156111df576001600060016101000a81548160ff02191690831515021790555060016000806101000a81548160ff0219169083151502179055505b600160668190555080156112085760008060016101000a81548160ff0219169083151502179055505b50565b6000603360009054906101000a900473ffffffffffffffffffffffffffffffffffffffff16905090565b6000603360009054906101000a900473ffffffffffffffffffffffffffffffffffffffff1673ffffffffffffffffffffffffffffffffffffffff16611278612202565b73ffffffffffffffffffffffffffffffffffffffff1614905090565b6000609c60009054906101000a900473ffffffffffffffffffffffffffffffffffffffff1673ffffffffffffffffffffffffffffffffffffffff1663ae9d70b06040518163ffffffff1660e01b815260040160206040518083038186803b1580156112fe57600080fd5b505afa158015611312573d6000803e3d6000fd5b505050506040513d602081101561132857600080fd5b8101908080519060200190929190505050905090565b6000609c60009054906101000a900473ffffffffffffffffffffffffffffffffffffffff1673ffffffffffffffffffffffffffffffffffffffff16633af9e669306040518263ffffffff1660e01b8152600401808273ffffffffffffffffffffffffffffffffffffffff1673ffffffffffffffffffffffffffffffffffffffff168152602001915050602060405180830381600087803b1580156113e157600080fd5b505af11580156113f5573d6000803e3d6000fd5b505050506040513d602081101561140b57600080fd5b8101908080519060200190929190505050905090565b600060019054906101000a900460ff1680611440575061143f6121eb565b5b8061145757506000809054906101000a900460ff16155b6114ac576040517f08c379a000000000000000000000000000000000000000000000000000000000815260040180806020018281038252602e81526020018061288d602e913960400191505060405180910390fd5b60008060019054906101000a900460ff1615905080156114fc576001600060016101000a81548160ff02191690831515021790555060016000806101000a81548160ff0219169083151502179055505b81603360006101000a81548173ffffffffffffffffffffffffffffffffffffffff021916908373ffffffffffffffffffffffffffffffffffffffff160217905550603360009054906101000a900473ffffffffffffffffffffffffffffffffffffffff1673ffffffffffffffffffffffffffffffffffffffff16600073ffffffffffffffffffffffffffffffffffffffff167f8be0079c531659141344cd1fd0a4f28419497f9722a3daafe3b4186f6b6457e060405160405180910390a380156115db5760008060016101000a81548160ff0219169083151502179055505b5050565b609e60149054906101000a900460ff16611661576040517f08c379a000000000000000000000000000000000000000000000000000000000815260040180806020018281038252600b8152602001807f467564696e672f6f70656e00000000000000000000000000000000000000000081525060200191505060405180910390fd5b6001606660008282540192505081905550600060665490506000609b54148061168c5750609b548310155b6116fe576040517f08c379a00000000000000000000000000000000000000000000000000000000081526004018080602001828103825260148152602001807f46756e64696e672f736d616c6c2d616d6f756e7400000000000000000000000081525060200191505060405180910390fd5b611706611a34565b73ffffffffffffffffffffffffffffffffffffffff166323b872dd3330866040518463ffffffff1660e01b8152600401808473ffffffffffffffffffffffffffffffffffffffff1673ffffffffffffffffffffffffffffffffffffffff1681526020018373ffffffffffffffffffffffffffffffffffffffff1673ffffffffffffffffffffffffffffffffffffffff1681526020018281526020019350505050602060405180830381600087803b1580156117c057600080fd5b505af11580156117d4573d6000803e3d6000fd5b505050506040513d60208110156117ea57600080fd5b810190808051906020019092919050505061186d576040517f08c379a000000000000000000000000000000000000000000000000000000000815260040180806020018281038252600e8152602001807f46756e64696e672f742d6661696c00000000000000000000000000000000000081525060200191505060405180910390fd5b611877338461220a565b3373ffffffffffffffffffffffffffffffffffffffff167f6f85d9948d6ca3dd6ce6ce7d175da22b4e865827ae6fcd530ec7edac1240f92884846040518083815260200180602001828103825283818151815260200191508051906020019080838360005b838110156118f75780820151818401526020810190506118dc565b50505050905090810190601f1680156119245780820380516001836020036101000a031916815260200191505b50935050505060405180910390a260665481146119a9576040517f08c379a000000000000000000000000000000000000000000000000000000000815260040180806020018281038252601f8152602001807f5265656e7472616e637947756172643a207265656e7472616e742063616c6c0081525060200191505060405180910390fd5b505050565b6119b6611235565b611a28576040517f08c379a00000000000000000000000000000000000000000000000000000000081526004018080602001828103825260208152602001807f4f776e61626c653a2063616c6c6572206973206e6f7420746865206f776e657281525060200191505060405180910390fd5b611a31816125b7565b50565b6000609c60009054906101000a900473ffffffffffffffffffffffffffffffffffffffff1673ffffffffffffffffffffffffffffffffffffffff16636f307dc36040518163ffffffff1660e01b815260040160206040518083038186803b158015611a9e57600080fd5b505afa158015611ab2573d6000803e3d6000fd5b505050506040513d6020811015611ac857600080fd5b8101908080519060200190929190505050905090565b609e60149054906101000a900460ff16611b60576040517f08c379a000000000000000000000000000000000000000000000000000000000815260040180806020018281038252600b8152602001807f467564696e672f6f70656e00000000000000000000000000000000000000000081525060200191505060405180910390fd5b6000609e60009054906101000a900473ffffffffffffffffffffffffffffffffffffffff1673ffffffffffffffffffffffffffffffffffffffff166373d4a13a6040518163ffffffff1660e01b815260040160206040518083038186803b158015611bca57600080fd5b505afa158015611bde573d6000803e3d6000fd5b505050506040513d6020811015611bf457600080fd5b810190808051906020019092919050505060001c90508073ffffffffffffffffffffffffffffffffffffffff16600073ffffffffffffffffffffffffffffffffffffffff161415611cad576040517f08c379a00000000000000000000000000000000000000000000000000000000081526004018080602001828103825260138152602001807f46756e64696e672f77696e6e65722d7a65726f0000000000000000000000000081525060200191505060405180910390fd5b609b54609d60008373ffffffffffffffffffffffffffffffffffffffff1673ffffffffffffffffffffffffffffffffffffffff168152602001908152602001600020541015611d64576040517f08c379a00000000000000000000000000000000000000000000000000000000081526004018080602001828103825260198152602001807f46756e64696e672f77696e6e65722d6e6f2d6465706f7369740000000000000081525060200191505060405180910390fd5b6000609e60146101000a81548160ff021916908315150217905550611d8881610a39565b50565b6000611dcd83836040518060400160405280601e81526020017f536166654d6174683a207375627472616374696f6e206f766572666c6f7700008152506126fd565b905092915050565b6000609d60008473ffffffffffffffffffffffffffffffffffffffff1673ffffffffffffffffffffffffffffffffffffffff16815260200190815260200160002054905080821115611e8f576040517f08c379a00000000000000000000000000000000000000000000000000000000081526004018080602001828103825260108152602001807f46756e64696e672f6e6f2d66756e64730000000000000000000000000000000081525060200191505060405180910390fd5b611ea28282611d8b90919063ffffffff16565b609d60008573ffffffffffffffffffffffffffffffffffffffff1673ffffffffffffffffffffffffffffffffffffffff16815260200190815260200160002081905550611efa82609a54611d8b90919063ffffffff16565b609a819055506000609c60009054906101000a900473ffffffffffffffffffffffffffffffffffffffff1673ffffffffffffffffffffffffffffffffffffffff1663852a12e3846040518263ffffffff1660e01b815260040180828152602001915050602060405180830381600087803b158015611f7757600080fd5b505af1158015611f8b573d6000803e3d6000fd5b505050506040513d6020811015611fa157600080fd5b810190808051906020019092919050505014612025576040517f08c379a000000000000000000000000000000000000000000000000000000000815260040180806020018281038252600e8152602001807f46756e64696e672f72656465656d00000000000000000000000000000000000081525060200191505060405180910390fd5b61202d611a34565b73ffffffffffffffffffffffffffffffffffffffff1663a9059cbb84846040518363ffffffff1660e01b8152600401808373ffffffffffffffffffffffffffffffffffffffff1673ffffffffffffffffffffffffffffffffffffffff16815260200182815260200192505050602060405180830381600087803b1580156120b357600080fd5b505af11580156120c7573d6000803e3d6000fd5b505050506040513d60208110156120dd57600080fd5b8101908080519060200190929190505050612160576040517f08c379a00000000000000000000000000000000000000000000000000000000081526004018080602001828103825260108152602001807f46756e64696e672f7472616e736665720000000000000000000000000000000081525060200191505060405180910390fd5b505050565b60008083141561217857600090506121e5565b600082840290508284828161218957fe5b04146121e0576040517f08c379a000000000000000000000000000000000000000000000000000000000815260040180806020018281038252602181526020018061286c6021913960400191505060405180910390fd5b809150505b92915050565b6000803090506000813b9050600081149250505090565b600033905090565b6000811415612281576040517f08c379a00000000000000000000000000000000000000000000000000000000081526004018080602001828103825260148152602001807f46756e64696e672f6465706f7369742d7a65726f00000000000000000000000081525060200191505060405180910390fd5b6122d381609d60008573ffffffffffffffffffffffffffffffffffffffff1673ffffffffffffffffffffffffffffffffffffffff168152602001908152602001600020546127bd90919063ffffffff16565b609d60008473ffffffffffffffffffffffffffffffffffffffff1673ffffffffffffffffffffffffffffffffffffffff1681526020019081526020016000208190555061232b81609a546127bd90919063ffffffff16565b609a81905550612339611a34565b73ffffffffffffffffffffffffffffffffffffffff1663095ea7b3609c60009054906101000a900473ffffffffffffffffffffffffffffffffffffffff16836040518363ffffffff1660e01b8152600401808373ffffffffffffffffffffffffffffffffffffffff1673ffffffffffffffffffffffffffffffffffffffff16815260200182815260200192505050602060405180830381600087803b1580156123e157600080fd5b505af11580156123f5573d6000803e3d6000fd5b505050506040513d602081101561240b57600080fd5b810190808051906020019092919050505061248e576040517f08c379a000000000000000000000000000000000000000000000000000000000815260040180806020018281038252600f8152602001807f46756e64696e672f617070726f7665000000000000000000000000000000000081525060200191505060405180910390fd5b6000609c60009054906101000a900473ffffffffffffffffffffffffffffffffffffffff1673ffffffffffffffffffffffffffffffffffffffff1663a0712d68836040518263ffffffff1660e01b815260040180828152602001915050602060405180830381600087803b15801561250557600080fd5b505af1158015612519573d6000803e3d6000fd5b505050506040513d602081101561252f57600080fd5b8101908080519060200190929190505050146125b3576040517f08c379a000000000000000000000000000000000000000000000000000000000815260040180806020018281038252600e8152602001807f46756e64696e672f737570706c7900000000000000000000000000000000000081525060200191505060405180910390fd5b5050565b600073ffffffffffffffffffffffffffffffffffffffff168173ffffffffffffffffffffffffffffffffffffffff16141561263d576040517f08c379a00000000000000000000000000000000000000000000000000000000081526004018080602001828103825260268152602001806128466026913960400191505060405180910390fd5b8073ffffffffffffffffffffffffffffffffffffffff16603360009054906101000a900473ffffffffffffffffffffffffffffffffffffffff1673ffffffffffffffffffffffffffffffffffffffff167f8be0079c531659141344cd1fd0a4f28419497f9722a3daafe3b4186f6b6457e060405160405180910390a380603360006101000a81548173ffffffffffffffffffffffffffffffffffffffff021916908373ffffffffffffffffffffffffffffffffffffffff16021790555050565b60008383111582906127aa576040517f08c379a00000000000000000000000000000000000000000000000000000000081526004018080602001828103825283818151815260200191508051906020019080838360005b8381101561276f578082015181840152602081019050612754565b50505050905090810190601f16801561279c5780820380516001836020036101000a031916815260200191505b509250505060405180910390fd5b5060008385039050809150509392505050565b60008082840190508381101561283b576040517f08c379a000000000000000000000000000000000000000000000000000000000815260040180806020018281038252601b8152602001807f536166654d6174683a206164646974696f6e206f766572666c6f77000000000081525060200191505060405180910390fd5b809150509291505056fe4f776e61626c653a206e6577206f776e657220697320746865207a65726f2061646472657373536166654d6174683a206d756c7469706c69636174696f6e206f766572666c6f77436f6e747261637420696e7374616e63652068617320616c7265616479206265656e20696e697469616c697a6564a265627a7a7231582091c0a1686e10f67d435197579869eb679c0e47e716b0496c4f555d990ad33b7f64736f6c63430005100032436f6e747261637420696e7374616e63652068617320616c7265616479206265656e20696e697469616c697a6564",
  "source": "pragma solidity ^0.5.0;\n\nimport \"@openzeppelin/contracts-ethereum-package/contracts/ownership/Ownable.sol\";\nimport \"@openzeppelin/contracts-ethereum-package/contracts/token/ERC20/IERC20.sol\";\nimport \"@openzeppelin/contracts-ethereum-package/contracts/math/SafeMath.sol\";\nimport \"@openzeppelin/contracts-ethereum-package/contracts/utils/ReentrancyGuard.sol\";\nimport \"@openzeppelin/upgrades/contracts/Initializable.sol\";\n// import \"@chainlink/contracts/src/v0.5/ChainlinkClient.sol\";\n\nimport \"./FundingOracleClient.sol\";\nimport \"../compound/ICErc20.sol\";\n\n\ncontract Funding is Ownable, ReentrancyGuard {\n    using SafeMath for uint256;\n\n    /**\n     * Emitted when a user deposits into the Pool.\n     * @param sender The purchaser of the tickets\n     * @param amount The size of the deposit\n     */\n    event Deposited(address indexed sender, uint256 amount, string userId);\n\n    /**\n     * Emitted when a user withdraws from the pool.\n     * @param sender The user that is withdrawing from the pool\n     * @param amount The amount that the user withdrew\n     */\n    event Withdrawn(address indexed sender, uint256 amount);\n\n    /**\n     * Emitted when a draw is rewarded.\n     * @param receiver The address of the reward receiver\n     * @param amount The amount of the win\n     */\n    event Rewarded(address indexed receiver, uint256 amount);\n\n    /**\n     * Contract's operator\n     */\n    address public operator;\n\n    /**\n     * The total of all balances\n     */\n    uint256 public accountedBalance;\n\n    /**\n     * Ticket price to be participate in the pool\n     */\n    uint256 public ticketPrice;\n\n    /**\n     * The Compound cToken that this Pool is bound to.\n     */\n    ICErc20 public cToken;\n\n    /**\n     * The total deposits for each user.\n     */\n    mapping(address => uint256) internal balances;\n\n    /**\n     * Oracle\n     */\n    FundingOracleClient public oracle;\n\n    bool public isOpen;\n\n    modifier onlyOperator() {\n        require(msg.sender == operator, \"Funding/is-opetator\");\n        _;\n    }\n\n    modifier onlyOperatorOrOwner() {\n        require(\n            msg.sender == operator || msg.sender == owner(),\n            \"Funding/is-opetator-or-owner\"\n        );\n        _;\n    }\n\n    modifier open() {\n      require(isOpen, \"Fuding/open\");\n      _;\n    }\n\n    constructor(\n        address _owner,\n        address _cToken,\n        address _operator,\n        address _oracle,\n        uint256 _ticketPrice\n    ) public {\n        require(_owner != address(0), \"Funding/owner-zero\");\n        require(_cToken != address(0), \"Funding/ctoken-zero\");\n        require(_operator != address(0), \"Funding/operator-zero\");\n\n        Ownable.initialize(_owner);\n        cToken = ICErc20(_cToken);\n        operator = _operator;\n        oracle = FundingOracleClient(_oracle);\n\n        ticketPrice = _ticketPrice;\n        isOpen = true;\n    }\n\n    function deposit(uint256 _amount, string memory _userId)\n        public\n        open\n        nonReentrant\n    {\n        require(\n            ticketPrice == 0 || _amount >= ticketPrice,\n            \"Funding/small-amount\"\n        );\n        // Transfer the tokens into this contract\n        require(\n            token().transferFrom(msg.sender, address(this), _amount),\n            \"Funding/t-fail\"\n        );\n\n        // Deposit the funds\n        _depositFrom(msg.sender, _amount);\n\n        emit Deposited(msg.sender, _amount, _userId);\n    }\n\n    /**\n     * @notice Withdraw the sender's entire balance back to them.\n     */\n    function withdraw() public nonReentrant {\n        uint256 balance = balances[msg.sender];\n        _withdraw(msg.sender, balance);\n\n        emit Withdrawn(msg.sender, balance);\n    }\n\n    function requestWinner(uint256 _payment)\n        public\n        open\n        onlyOperatorOrOwner returns (bytes32 requestId)\n    {\n        requestId = oracle.requestWinner(address(this), _payment);\n    }\n\n    function rewardWinner() public open {\n      address winningAddress = address(uint160(uint256(oracle.data())));\n      require(address(0) != winningAddress, \"Funding/winner-zero\");\n      require(balances[winningAddress] >= ticketPrice, \"Funding/winner-no-deposit\");\n      isOpen = false;\n      reward(winningAddress);\n    }\n\n    /**\n     * @notice Deposits into the pool for a user.  Updates their balance and transfers their tokens into this contract.\n     * @param _spender The user who is depositing\n     * @param _amount The amount they are depositing\n     */\n    function _depositFrom(address _spender, uint256 _amount) internal {\n        require(_amount != 0, \"Funding/deposit-zero\");\n        // Update the user's balance\n        balances[_spender] = balances[_spender].add(_amount);\n\n        // Update the total of this contract\n        accountedBalance = accountedBalance.add(_amount);\n\n        // Deposit into Compound\n        require(token().approve(address(cToken), _amount), \"Funding/approve\");\n        require(cToken.mint(_amount) == 0, \"Funding/supply\");\n    }\n\n    /**\n     * @notice Transfers tokens from the cToken contract to the sender.  Updates the accounted balance.\n     */\n    function _withdraw(address _sender, uint256 _amount) internal {\n        uint256 balance = balances[_sender];\n\n        require(_amount <= balance, \"Funding/no-funds\");\n\n        // Update the user's balance\n        balances[_sender] = balance.sub(_amount);\n\n        // Update the total of this contract\n        accountedBalance = accountedBalance.sub(_amount);\n\n        // Withdraw from Compound and transfer\n        require(cToken.redeemUnderlying(_amount) == 0, \"Funding/redeem\");\n        require(token().transfer(_sender, _amount), \"Funding/transfer\");\n    }\n\n    function reward(address _receiver) public onlyOperatorOrOwner {\n        require(_receiver != address(0), \"Funding/receiver-zero\");\n\n        uint256 amount = interestEarned();\n        require(amount != 0, \"Funding/reward-zero\");\n\n        require(cToken.redeemUnderlying(amount) == 0, \"Funding/redeem\");\n        require(token().transfer(_receiver, amount), \"Funding/transfer\");\n\n        emit Rewarded(_receiver, amount);\n    }\n\n    /**\n     * @notice Returns the token underlying the cToken.\n     * @return An ERC20 token address\n     */\n    function token() public view returns (IERC20) {\n        return IERC20(cToken.underlying());\n    }\n\n    /**\n     * @notice Returns a user's total balance.  This includes their sponsorships, fees, open deposits, and committed deposits.\n     * @param _addr The address of the user to check.\n     * @return The user's current balance.\n     */\n    function balanceOf(address _addr) external view returns (uint256) {\n        return balances[_addr];\n    }\n\n    /**\n     * @notice Returns the underlying balance of this contract in the cToken.\n     * @return The cToken underlying balance for this contract.\n     */\n    function balance() public returns (uint256) {\n        return cToken.balanceOfUnderlying(address(this));\n    }\n\n    /**\n     * @notice Returns the interest earned by the contract till now\n     * @return The cToken underlying balance for this contract minus the deposited balance.\n     */\n    function interestEarned() public returns (uint256) {\n        return balance().sub(accountedBalance);\n    }\n\n    /**\n     * @notice Calculates the total estimated interest earned for the given number of blocks\n     * @param _blocks The number of block that interest accrued for\n     * @return The total estimated interest as a 18 point fixed decimal.\n     */\n    function estimatedInterestRate(uint256 _blocks)\n        public\n        view\n        returns (uint256)\n    {\n        return supplyRatePerBlock().mul(_blocks);\n    }\n\n    /**\n     * @notice Convenience function to return the supplyRatePerBlock value from the money market contract.\n     * @return The cToken supply rate per block\n     */\n    function supplyRatePerBlock() public view returns (uint256) {\n        return cToken.supplyRatePerBlock();\n    }\n}\n",
  "sourcePath": "/Users/leon/workspace/genie/genie-contracts/contracts/funding/Funding.sol",
  "compiler": {
    "name": "solc",
    "version": "0.5.16+commit.9c3226ce.Emscripten.clang"
  },
  "schemaVersion": "3.1.0",
  "updatedAt": "2020-05-22T10:26:52.107Z",
  "devdoc": {
    "methods": {
      "balance()": {
        "return": "The cToken underlying balance for this contract."
      },
      "balanceOf(address)": {
        "params": {
          "_addr": "The address of the user to check."
        },
        "return": "The user's current balance."
      },
      "estimatedInterestRate(uint256)": {
        "params": {
          "_blocks": "The number of block that interest accrued for"
        },
        "return": "The total estimated interest as a 18 point fixed decimal."
      },
      "initialize(address)": {
        "details": "Initializes the contract setting the deployer as the initial owner."
      },
      "interestEarned()": {
        "return": "The cToken underlying balance for this contract minus the deposited balance."
      },
      "isOwner()": {
        "details": "Returns true if the caller is the current owner."
      },
      "owner()": {
        "details": "Returns the address of the current owner."
      },
      "renounceOwnership()": {
        "details": "Leaves the contract without owner. It will not be possible to call `onlyOwner` functions anymore. Can only be called by the current owner.     * > Note: Renouncing ownership will leave the contract without an owner, thereby removing any functionality that is only available to the owner."
      },
      "supplyRatePerBlock()": {
        "return": "The cToken supply rate per block"
      },
      "token()": {
        "return": "An ERC20 token address"
      },
      "transferOwnership(address)": {
        "details": "Transfers ownership of the contract to a new account (`newOwner`). Can only be called by the current owner."
      }
    }
  },
  "userdoc": {
    "methods": {
      "balance()": {
        "notice": "Returns the underlying balance of this contract in the cToken."
      },
      "balanceOf(address)": {
        "notice": "Returns a user's total balance.  This includes their sponsorships, fees, open deposits, and committed deposits."
      },
      "estimatedInterestRate(uint256)": {
        "notice": "Calculates the total estimated interest earned for the given number of blocks"
      },
      "interestEarned()": {
        "notice": "Returns the interest earned by the contract till now"
      },
      "supplyRatePerBlock()": {
        "notice": "Convenience function to return the supplyRatePerBlock value from the money market contract."
      },
      "token()": {
        "notice": "Returns the token underlying the cToken."
      },
      "withdraw()": {
        "notice": "Withdraw the sender's entire balance back to them."
      }
    }
  }
}