{
  "contractName": "Funding",
  "abi": [
    {
      "inputs": [
        {
          "internalType": "address",
          "name": "_owner",
          "type": "address"
        },
        {
          "internalType": "address",
          "name": "_cToken",
          "type": "address"
        },
        {
          "internalType": "address",
          "name": "_operator",
          "type": "address"
        }
      ],
      "payable": false,
      "stateMutability": "nonpayable",
      "type": "constructor"
    },
    {
      "anonymous": false,
      "inputs": [
        {
          "indexed": true,
          "internalType": "address",
          "name": "sender",
          "type": "address"
        },
        {
          "indexed": false,
          "internalType": "uint256",
          "name": "amount",
          "type": "uint256"
        }
      ],
      "name": "Deposited",
      "type": "event"
    },
    {
      "anonymous": false,
      "inputs": [
        {
          "indexed": true,
          "internalType": "address",
          "name": "previousOwner",
          "type": "address"
        },
        {
          "indexed": true,
          "internalType": "address",
          "name": "newOwner",
          "type": "address"
        }
      ],
      "name": "OwnershipTransferred",
      "type": "event"
    },
    {
      "anonymous": false,
      "inputs": [
        {
          "indexed": true,
          "internalType": "address",
          "name": "receiver",
          "type": "address"
        },
        {
          "indexed": false,
          "internalType": "uint256",
          "name": "amount",
          "type": "uint256"
        }
      ],
      "name": "Rewarded",
      "type": "event"
    },
    {
      "anonymous": false,
      "inputs": [
        {
          "indexed": true,
          "internalType": "address",
          "name": "sender",
          "type": "address"
        },
        {
          "indexed": false,
          "internalType": "uint256",
          "name": "amount",
          "type": "uint256"
        }
      ],
      "name": "Withdrawn",
      "type": "event"
    },
    {
      "constant": true,
      "inputs": [],
      "name": "accountedBalance",
      "outputs": [
        {
          "internalType": "uint256",
          "name": "",
          "type": "uint256"
        }
      ],
      "payable": false,
      "stateMutability": "view",
      "type": "function"
    },
    {
      "constant": true,
      "inputs": [],
      "name": "cToken",
      "outputs": [
        {
          "internalType": "contract ICErc20",
          "name": "",
          "type": "address"
        }
      ],
      "payable": false,
      "stateMutability": "view",
      "type": "function"
    },
    {
      "constant": false,
      "inputs": [],
      "name": "initialize",
      "outputs": [],
      "payable": false,
      "stateMutability": "nonpayable",
      "type": "function"
    },
    {
      "constant": false,
      "inputs": [
        {
          "internalType": "address",
          "name": "sender",
          "type": "address"
        }
      ],
      "name": "initialize",
      "outputs": [],
      "payable": false,
      "stateMutability": "nonpayable",
      "type": "function"
    },
    {
      "constant": true,
      "inputs": [],
      "name": "isOwner",
      "outputs": [
        {
          "internalType": "bool",
          "name": "",
          "type": "bool"
        }
      ],
      "payable": false,
      "stateMutability": "view",
      "type": "function"
    },
    {
      "constant": true,
      "inputs": [],
      "name": "operator",
      "outputs": [
        {
          "internalType": "address",
          "name": "",
          "type": "address"
        }
      ],
      "payable": false,
      "stateMutability": "view",
      "type": "function"
    },
    {
      "constant": true,
      "inputs": [],
      "name": "owner",
      "outputs": [
        {
          "internalType": "address",
          "name": "",
          "type": "address"
        }
      ],
      "payable": false,
      "stateMutability": "view",
      "type": "function"
    },
    {
      "constant": false,
      "inputs": [],
      "name": "renounceOwnership",
      "outputs": [],
      "payable": false,
      "stateMutability": "nonpayable",
      "type": "function"
    },
    {
      "constant": false,
      "inputs": [
        {
          "internalType": "address",
          "name": "newOwner",
          "type": "address"
        }
      ],
      "name": "transferOwnership",
      "outputs": [],
      "payable": false,
      "stateMutability": "nonpayable",
      "type": "function"
    },
    {
      "constant": false,
      "inputs": [
        {
          "internalType": "uint256",
          "name": "_amount",
          "type": "uint256"
        }
      ],
      "name": "deposit",
      "outputs": [],
      "payable": false,
      "stateMutability": "nonpayable",
      "type": "function"
    },
    {
      "constant": false,
      "inputs": [],
      "name": "withdraw",
      "outputs": [],
      "payable": false,
      "stateMutability": "nonpayable",
      "type": "function"
    },
    {
      "constant": false,
      "inputs": [
        {
          "internalType": "address",
          "name": "_receiver",
          "type": "address"
        }
      ],
      "name": "reward",
      "outputs": [],
      "payable": false,
      "stateMutability": "nonpayable",
      "type": "function"
    },
    {
      "constant": true,
      "inputs": [],
      "name": "token",
      "outputs": [
        {
          "internalType": "contract IERC20",
          "name": "",
          "type": "address"
        }
      ],
      "payable": false,
      "stateMutability": "view",
      "type": "function"
    },
    {
      "constant": true,
      "inputs": [
        {
          "internalType": "address",
          "name": "_addr",
          "type": "address"
        }
      ],
      "name": "balanceOf",
      "outputs": [
        {
          "internalType": "uint256",
          "name": "",
          "type": "uint256"
        }
      ],
      "payable": false,
      "stateMutability": "view",
      "type": "function"
    },
    {
      "constant": false,
      "inputs": [],
      "name": "balance",
      "outputs": [
        {
          "internalType": "uint256",
          "name": "",
          "type": "uint256"
        }
      ],
      "payable": false,
      "stateMutability": "nonpayable",
      "type": "function"
    },
    {
      "constant": false,
      "inputs": [],
      "name": "interestEarned",
      "outputs": [
        {
          "internalType": "uint256",
          "name": "",
          "type": "uint256"
        }
      ],
      "payable": false,
      "stateMutability": "nonpayable",
      "type": "function"
    },
    {
      "constant": true,
      "inputs": [
        {
          "internalType": "uint256",
          "name": "_blocks",
          "type": "uint256"
        }
      ],
      "name": "estimatedInterestRate",
      "outputs": [
        {
          "internalType": "uint256",
          "name": "",
          "type": "uint256"
        }
      ],
      "payable": false,
      "stateMutability": "view",
      "type": "function"
    },
    {
      "constant": true,
      "inputs": [],
      "name": "supplyRatePerBlock",
      "outputs": [
        {
          "internalType": "uint256",
          "name": "",
          "type": "uint256"
        }
      ],
      "payable": false,
      "stateMutability": "view",
      "type": "function"
    }
  ],
  "bytecode": "0x60806040523480156200001157600080fd5b506040516200258538038062002585833981810160405260608110156200003757600080fd5b81019080805190602001909291908051906020019092919080519060200190929190505050600073ffffffffffffffffffffffffffffffffffffffff168373ffffffffffffffffffffffffffffffffffffffff16141562000100576040517f08c379a00000000000000000000000000000000000000000000000000000000081526004018080602001828103825260128152602001807f46756e64696e672f6f776e65722d7a65726f000000000000000000000000000081525060200191505060405180910390fd5b600073ffffffffffffffffffffffffffffffffffffffff168273ffffffffffffffffffffffffffffffffffffffff161415620001a4576040517f08c379a00000000000000000000000000000000000000000000000000000000081526004018080602001828103825260138152602001807f46756e64696e672f63746f6b656e2d7a65726f0000000000000000000000000081525060200191505060405180910390fd5b600073ffffffffffffffffffffffffffffffffffffffff168173ffffffffffffffffffffffffffffffffffffffff16141562000248576040517f08c379a00000000000000000000000000000000000000000000000000000000081526004018080602001828103825260158152602001807f46756e64696e672f6f70657261746f722d7a65726f000000000000000000000081525060200191505060405180910390fd5b6200025e83620002e960201b620012291760201c565b81609b60006101000a81548173ffffffffffffffffffffffffffffffffffffffff021916908373ffffffffffffffffffffffffffffffffffffffff16021790555080609960006101000a81548173ffffffffffffffffffffffffffffffffffffffff021916908373ffffffffffffffffffffffffffffffffffffffff160217905550505050620004cc565b600060019054906101000a900460ff168062000311575062000310620004b560201b60201c565b5b806200032957506000809054906101000a900460ff16155b62000380576040517f08c379a000000000000000000000000000000000000000000000000000000000815260040180806020018281038252602e81526020018062002557602e913960400191505060405180910390fd5b60008060019054906101000a900460ff161590508015620003d1576001600060016101000a81548160ff02191690831515021790555060016000806101000a81548160ff0219169083151502179055505b81603360006101000a81548173ffffffffffffffffffffffffffffffffffffffff021916908373ffffffffffffffffffffffffffffffffffffffff160217905550603360009054906101000a900473ffffffffffffffffffffffffffffffffffffffff1673ffffffffffffffffffffffffffffffffffffffff16600073ffffffffffffffffffffffffffffffffffffffff167f8be0079c531659141344cd1fd0a4f28419497f9722a3daafe3b4186f6b6457e060405160405180910390a38015620004b15760008060016101000a81548160ff0219169083151502179055505b5050565b6000803090506000813b9050600081149250505090565b61207b80620004dc6000396000f3fe608060405234801561001057600080fd5b50600436106101165760003560e01c80638129fc1c116100a2578063b69ef8a811610071578063b69ef8a814610371578063b6b55f251461038f578063c4d66de8146103bd578063f2fde38b14610401578063fc0c546a1461044557610116565b80638129fc1c146102dd5780638da5cb5b146102e75780638f32d59b14610331578063ae9d70b01461035357610116565b80636353586b116100e95780636353586b146101ab57806369e527da146101ef57806370a0823114610239578063715018a61461029157806377bbb7571461029b57610116565b80630937eb541461011b578063374261ab146101395780633ccfd60b14610157578063570ca73514610161575b600080fd5b61012361048f565b6040518082815260200191505060405180910390f35b610141610495565b6040518082815260200191505060405180910390f35b61015f6104b8565b005b6101696105e7565b604051808273ffffffffffffffffffffffffffffffffffffffff1673ffffffffffffffffffffffffffffffffffffffff16815260200191505060405180910390f35b6101ed600480360360208110156101c157600080fd5b81019080803573ffffffffffffffffffffffffffffffffffffffff16906020019092919050505061060d565b005b6101f7610ae5565b604051808273ffffffffffffffffffffffffffffffffffffffff1673ffffffffffffffffffffffffffffffffffffffff16815260200191505060405180910390f35b61027b6004803603602081101561024f57600080fd5b81019080803573ffffffffffffffffffffffffffffffffffffffff169060200190929190505050610b0b565b6040518082815260200191505060405180910390f35b610299610b54565b005b6102c7600480360360208110156102b157600080fd5b8101908080359060200190929190505050610c8f565b6040518082815260200191505060405180910390f35b6102e5610cb2565b005b6102ef610db9565b604051808273ffffffffffffffffffffffffffffffffffffffff1673ffffffffffffffffffffffffffffffffffffffff16815260200191505060405180910390f35b610339610de3565b604051808215151515815260200191505060405180910390f35b61035b610e42565b6040518082815260200191505060405180910390f35b610379610eec565b6040518082815260200191505060405180910390f35b6103bb600480360360208110156103a557600080fd5b8101908080359060200190929190505050610fcf565b005b6103ff600480360360208110156103d357600080fd5b81019080803573ffffffffffffffffffffffffffffffffffffffff169060200190929190505050611229565b005b6104436004803603602081101561041757600080fd5b81019080803573ffffffffffffffffffffffffffffffffffffffff1690602001909291905050506113e7565b005b61044d61146d565b604051808273ffffffffffffffffffffffffffffffffffffffff1673ffffffffffffffffffffffffffffffffffffffff16815260200191505060405180910390f35b609a5481565b60006104b3609a546104a5610eec565b61151790919063ffffffff16565b905090565b6001606660008282540192505081905550600060665490506000609c60003373ffffffffffffffffffffffffffffffffffffffff1673ffffffffffffffffffffffffffffffffffffffff16815260200190815260200160002054905061051e3382611561565b3373ffffffffffffffffffffffffffffffffffffffff167f7084f5476618d8e60b11ef0d7d3f06914655adb8793e28ff7f018d4c76d505d5826040518082815260200191505060405180910390a25060665481146105e4576040517f08c379a000000000000000000000000000000000000000000000000000000000815260040180806020018281038252601f8152602001807f5265656e7472616e637947756172643a207265656e7472616e742063616c6c0081525060200191505060405180910390fd5b50565b609960009054906101000a900473ffffffffffffffffffffffffffffffffffffffff1681565b609960009054906101000a900473ffffffffffffffffffffffffffffffffffffffff1673ffffffffffffffffffffffffffffffffffffffff163373ffffffffffffffffffffffffffffffffffffffff16148061069b575061066c610db9565b73ffffffffffffffffffffffffffffffffffffffff163373ffffffffffffffffffffffffffffffffffffffff16145b61070d576040517f08c379a000000000000000000000000000000000000000000000000000000000815260040180806020018281038252601c8152602001807f46756e64696e672f69732d6f70657461746f722d6f722d6f776e65720000000081525060200191505060405180910390fd5b600073ffffffffffffffffffffffffffffffffffffffff168173ffffffffffffffffffffffffffffffffffffffff1614156107b0576040517f08c379a00000000000000000000000000000000000000000000000000000000081526004018080602001828103825260158152602001807f46756e64696e672f72656365697665722d7a65726f000000000000000000000081525060200191505060405180910390fd5b60006107ba610495565b90506000811415610833576040517f08c379a00000000000000000000000000000000000000000000000000000000081526004018080602001828103825260138152602001807f46756e64696e672f7265776172642d7a65726f0000000000000000000000000081525060200191505060405180910390fd5b6000609b60009054906101000a900473ffffffffffffffffffffffffffffffffffffffff1673ffffffffffffffffffffffffffffffffffffffff1663852a12e3836040518263ffffffff1660e01b815260040180828152602001915050602060405180830381600087803b1580156108aa57600080fd5b505af11580156108be573d6000803e3d6000fd5b505050506040513d60208110156108d457600080fd5b810190808051906020019092919050505014610958576040517f08c379a000000000000000000000000000000000000000000000000000000000815260040180806020018281038252600e8152602001807f46756e64696e672f72656465656d00000000000000000000000000000000000081525060200191505060405180910390fd5b61096061146d565b73ffffffffffffffffffffffffffffffffffffffff1663a9059cbb83836040518363ffffffff1660e01b8152600401808373ffffffffffffffffffffffffffffffffffffffff1673ffffffffffffffffffffffffffffffffffffffff16815260200182815260200192505050602060405180830381600087803b1580156109e657600080fd5b505af11580156109fa573d6000803e3d6000fd5b505050506040513d6020811015610a1057600080fd5b8101908080519060200190929190505050610a93576040517f08c379a00000000000000000000000000000000000000000000000000000000081526004018080602001828103825260108152602001807f46756e64696e672f7472616e736665720000000000000000000000000000000081525060200191505060405180910390fd5b8173ffffffffffffffffffffffffffffffffffffffff167fb3b7a071186534c03b40695710096f289fd4ed6c1a374aff0bb648955e4fe563826040518082815260200191505060405180910390a25050565b609b60009054906101000a900473ffffffffffffffffffffffffffffffffffffffff1681565b6000609c60008373ffffffffffffffffffffffffffffffffffffffff1673ffffffffffffffffffffffffffffffffffffffff168152602001908152602001600020549050919050565b610b5c610de3565b610bce576040517f08c379a00000000000000000000000000000000000000000000000000000000081526004018080602001828103825260208152602001807f4f776e61626c653a2063616c6c6572206973206e6f7420746865206f776e657281525060200191505060405180910390fd5b600073ffffffffffffffffffffffffffffffffffffffff16603360009054906101000a900473ffffffffffffffffffffffffffffffffffffffff1673ffffffffffffffffffffffffffffffffffffffff167f8be0079c531659141344cd1fd0a4f28419497f9722a3daafe3b4186f6b6457e060405160405180910390a36000603360006101000a81548173ffffffffffffffffffffffffffffffffffffffff021916908373ffffffffffffffffffffffffffffffffffffffff160217905550565b6000610cab82610c9d610e42565b6118f190919063ffffffff16565b9050919050565b600060019054906101000a900460ff1680610cd15750610cd0611977565b5b80610ce857506000809054906101000a900460ff16155b610d3d576040517f08c379a000000000000000000000000000000000000000000000000000000000815260040180806020018281038252602e815260200180612019602e913960400191505060405180910390fd5b60008060019054906101000a900460ff161590508015610d8d576001600060016101000a81548160ff02191690831515021790555060016000806101000a81548160ff0219169083151502179055505b60016066819055508015610db65760008060016101000a81548160ff0219169083151502179055505b50565b6000603360009054906101000a900473ffffffffffffffffffffffffffffffffffffffff16905090565b6000603360009054906101000a900473ffffffffffffffffffffffffffffffffffffffff1673ffffffffffffffffffffffffffffffffffffffff16610e2661198e565b73ffffffffffffffffffffffffffffffffffffffff1614905090565b6000609b60009054906101000a900473ffffffffffffffffffffffffffffffffffffffff1673ffffffffffffffffffffffffffffffffffffffff1663ae9d70b06040518163ffffffff1660e01b815260040160206040518083038186803b158015610eac57600080fd5b505afa158015610ec0573d6000803e3d6000fd5b505050506040513d6020811015610ed657600080fd5b8101908080519060200190929190505050905090565b6000609b60009054906101000a900473ffffffffffffffffffffffffffffffffffffffff1673ffffffffffffffffffffffffffffffffffffffff16633af9e669306040518263ffffffff1660e01b8152600401808273ffffffffffffffffffffffffffffffffffffffff1673ffffffffffffffffffffffffffffffffffffffff168152602001915050602060405180830381600087803b158015610f8f57600080fd5b505af1158015610fa3573d6000803e3d6000fd5b505050506040513d6020811015610fb957600080fd5b8101908080519060200190929190505050905090565b600160666000828254019250508190555060006066549050610fef61146d565b73ffffffffffffffffffffffffffffffffffffffff166323b872dd3330856040518463ffffffff1660e01b8152600401808473ffffffffffffffffffffffffffffffffffffffff1673ffffffffffffffffffffffffffffffffffffffff1681526020018373ffffffffffffffffffffffffffffffffffffffff1673ffffffffffffffffffffffffffffffffffffffff1681526020018281526020019350505050602060405180830381600087803b1580156110a957600080fd5b505af11580156110bd573d6000803e3d6000fd5b505050506040513d60208110156110d357600080fd5b8101908080519060200190929190505050611156576040517f08c379a000000000000000000000000000000000000000000000000000000000815260040180806020018281038252600e8152602001807f46756e64696e672f742d6661696c00000000000000000000000000000000000081525060200191505060405180910390fd5b6111603383611996565b3373ffffffffffffffffffffffffffffffffffffffff167f2da466a7b24304f47e87fa2e1e5a81b9831ce54fec19055ce277ca2f39ba42c4836040518082815260200191505060405180910390a26066548114611225576040517f08c379a000000000000000000000000000000000000000000000000000000000815260040180806020018281038252601f8152602001807f5265656e7472616e637947756172643a207265656e7472616e742063616c6c0081525060200191505060405180910390fd5b5050565b600060019054906101000a900460ff16806112485750611247611977565b5b8061125f57506000809054906101000a900460ff16155b6112b4576040517f08c379a000000000000000000000000000000000000000000000000000000000815260040180806020018281038252602e815260200180612019602e913960400191505060405180910390fd5b60008060019054906101000a900460ff161590508015611304576001600060016101000a81548160ff02191690831515021790555060016000806101000a81548160ff0219169083151502179055505b81603360006101000a81548173ffffffffffffffffffffffffffffffffffffffff021916908373ffffffffffffffffffffffffffffffffffffffff160217905550603360009054906101000a900473ffffffffffffffffffffffffffffffffffffffff1673ffffffffffffffffffffffffffffffffffffffff16600073ffffffffffffffffffffffffffffffffffffffff167f8be0079c531659141344cd1fd0a4f28419497f9722a3daafe3b4186f6b6457e060405160405180910390a380156113e35760008060016101000a81548160ff0219169083151502179055505b5050565b6113ef610de3565b611461576040517f08c379a00000000000000000000000000000000000000000000000000000000081526004018080602001828103825260208152602001807f4f776e61626c653a2063616c6c6572206973206e6f7420746865206f776e657281525060200191505060405180910390fd5b61146a81611d43565b50565b6000609b60009054906101000a900473ffffffffffffffffffffffffffffffffffffffff1673ffffffffffffffffffffffffffffffffffffffff16636f307dc36040518163ffffffff1660e01b815260040160206040518083038186803b1580156114d757600080fd5b505afa1580156114eb573d6000803e3d6000fd5b505050506040513d602081101561150157600080fd5b8101908080519060200190929190505050905090565b600061155983836040518060400160405280601e81526020017f536166654d6174683a207375627472616374696f6e206f766572666c6f770000815250611e89565b905092915050565b6000609c60008473ffffffffffffffffffffffffffffffffffffffff1673ffffffffffffffffffffffffffffffffffffffff1681526020019081526020016000205490508082111561161b576040517f08c379a00000000000000000000000000000000000000000000000000000000081526004018080602001828103825260108152602001807f46756e64696e672f6e6f2d66756e64730000000000000000000000000000000081525060200191505060405180910390fd5b61162e828261151790919063ffffffff16565b609c60008573ffffffffffffffffffffffffffffffffffffffff1673ffffffffffffffffffffffffffffffffffffffff1681526020019081526020016000208190555061168682609a5461151790919063ffffffff16565b609a819055506000609b60009054906101000a900473ffffffffffffffffffffffffffffffffffffffff1673ffffffffffffffffffffffffffffffffffffffff1663852a12e3846040518263ffffffff1660e01b815260040180828152602001915050602060405180830381600087803b15801561170357600080fd5b505af1158015611717573d6000803e3d6000fd5b505050506040513d602081101561172d57600080fd5b8101908080519060200190929190505050146117b1576040517f08c379a000000000000000000000000000000000000000000000000000000000815260040180806020018281038252600e8152602001807f46756e64696e672f72656465656d00000000000000000000000000000000000081525060200191505060405180910390fd5b6117b961146d565b73ffffffffffffffffffffffffffffffffffffffff1663a9059cbb84846040518363ffffffff1660e01b8152600401808373ffffffffffffffffffffffffffffffffffffffff1673ffffffffffffffffffffffffffffffffffffffff16815260200182815260200192505050602060405180830381600087803b15801561183f57600080fd5b505af1158015611853573d6000803e3d6000fd5b505050506040513d602081101561186957600080fd5b81019080805190602001909291905050506118ec576040517f08c379a00000000000000000000000000000000000000000000000000000000081526004018080602001828103825260108152602001807f46756e64696e672f7472616e736665720000000000000000000000000000000081525060200191505060405180910390fd5b505050565b6000808314156119045760009050611971565b600082840290508284828161191557fe5b041461196c576040517f08c379a0000000000000000000000000000000000000000000000000000000008152600401808060200182810382526021815260200180611ff86021913960400191505060405180910390fd5b809150505b92915050565b6000803090506000813b9050600081149250505090565b600033905090565b6000811415611a0d576040517f08c379a00000000000000000000000000000000000000000000000000000000081526004018080602001828103825260148152602001807f46756e64696e672f6465706f7369742d7a65726f00000000000000000000000081525060200191505060405180910390fd5b611a5f81609c60008573ffffffffffffffffffffffffffffffffffffffff1673ffffffffffffffffffffffffffffffffffffffff16815260200190815260200160002054611f4990919063ffffffff16565b609c60008473ffffffffffffffffffffffffffffffffffffffff1673ffffffffffffffffffffffffffffffffffffffff16815260200190815260200160002081905550611ab781609a54611f4990919063ffffffff16565b609a81905550611ac561146d565b73ffffffffffffffffffffffffffffffffffffffff1663095ea7b3609b60009054906101000a900473ffffffffffffffffffffffffffffffffffffffff16836040518363ffffffff1660e01b8152600401808373ffffffffffffffffffffffffffffffffffffffff1673ffffffffffffffffffffffffffffffffffffffff16815260200182815260200192505050602060405180830381600087803b158015611b6d57600080fd5b505af1158015611b81573d6000803e3d6000fd5b505050506040513d6020811015611b9757600080fd5b8101908080519060200190929190505050611c1a576040517f08c379a000000000000000000000000000000000000000000000000000000000815260040180806020018281038252600f8152602001807f46756e64696e672f617070726f7665000000000000000000000000000000000081525060200191505060405180910390fd5b6000609b60009054906101000a900473ffffffffffffffffffffffffffffffffffffffff1673ffffffffffffffffffffffffffffffffffffffff1663a0712d68836040518263ffffffff1660e01b815260040180828152602001915050602060405180830381600087803b158015611c9157600080fd5b505af1158015611ca5573d6000803e3d6000fd5b505050506040513d6020811015611cbb57600080fd5b810190808051906020019092919050505014611d3f576040517f08c379a000000000000000000000000000000000000000000000000000000000815260040180806020018281038252600e8152602001807f46756e64696e672f737570706c7900000000000000000000000000000000000081525060200191505060405180910390fd5b5050565b600073ffffffffffffffffffffffffffffffffffffffff168173ffffffffffffffffffffffffffffffffffffffff161415611dc9576040517f08c379a0000000000000000000000000000000000000000000000000000000008152600401808060200182810382526026815260200180611fd26026913960400191505060405180910390fd5b8073ffffffffffffffffffffffffffffffffffffffff16603360009054906101000a900473ffffffffffffffffffffffffffffffffffffffff1673ffffffffffffffffffffffffffffffffffffffff167f8be0079c531659141344cd1fd0a4f28419497f9722a3daafe3b4186f6b6457e060405160405180910390a380603360006101000a81548173ffffffffffffffffffffffffffffffffffffffff021916908373ffffffffffffffffffffffffffffffffffffffff16021790555050565b6000838311158290611f36576040517f08c379a00000000000000000000000000000000000000000000000000000000081526004018080602001828103825283818151815260200191508051906020019080838360005b83811015611efb578082015181840152602081019050611ee0565b50505050905090810190601f168015611f285780820380516001836020036101000a031916815260200191505b509250505060405180910390fd5b5060008385039050809150509392505050565b600080828401905083811015611fc7576040517f08c379a000000000000000000000000000000000000000000000000000000000815260040180806020018281038252601b8152602001807f536166654d6174683a206164646974696f6e206f766572666c6f77000000000081525060200191505060405180910390fd5b809150509291505056fe4f776e61626c653a206e6577206f776e657220697320746865207a65726f2061646472657373536166654d6174683a206d756c7469706c69636174696f6e206f766572666c6f77436f6e747261637420696e7374616e63652068617320616c7265616479206265656e20696e697469616c697a6564a265627a7a7231582073730926026118ce09b2497109d37301d41c4e2096f832449f6e280609922fa164736f6c63430005100032436f6e747261637420696e7374616e63652068617320616c7265616479206265656e20696e697469616c697a6564",
  "source": "pragma solidity ^0.5.0;\n\nimport \"@openzeppelin/contracts-ethereum-package/contracts/ownership/Ownable.sol\";\nimport \"@openzeppelin/contracts-ethereum-package/contracts/token/ERC20/IERC20.sol\";\nimport \"@openzeppelin/contracts-ethereum-package/contracts/math/SafeMath.sol\";\nimport \"@openzeppelin/contracts-ethereum-package/contracts/utils/ReentrancyGuard.sol\";\nimport '@openzeppelin/upgrades/contracts/Initializable.sol';\n\nimport \"./compound/ICErc20.sol\";\n\ncontract Funding is Ownable, ReentrancyGuard {\n\n  using SafeMath for uint256;\n\n\n  /**\n   * Emitted when a user deposits into the Pool.\n   * @param sender The purchaser of the tickets\n   * @param amount The size of the deposit\n   */\n  event Deposited(address indexed sender, uint256 amount);\n\n    /**\n   * Emitted when a user withdraws from the pool.\n   * @param sender The user that is withdrawing from the pool\n   * @param amount The amount that the user withdrew\n   */\n  event Withdrawn(address indexed sender, uint256 amount);\n\n  /**\n   * Emitted when a draw is rewarded.\n   * @param receiver The address of the reward receiver\n   * @param amount The amount of the win\n   */\n  event Rewarded(\n    address indexed receiver,\n    uint256 amount\n  );\n\n  /**\n   * Contract's operator\n   */\n  address public operator;\n\n  /**\n   * The total of all balances\n   */\n  uint256 public accountedBalance;\n\n  /**\n   * The Compound cToken that this Pool is bound to.\n   */\n  ICErc20 public cToken;\n\n  /**\n   * The total deposits for each user.\n   */\n  mapping (address => uint256) internal balances;\n\n  modifier onlyOperator() {\n    require(msg.sender == operator, \"Funding/is-opetator\");\n    _;\n  }\n\n    modifier onlyOperatorOrOwner() {\n    require(msg.sender == operator || msg.sender == owner(), \"Funding/is-opetator-or-owner\");\n    _;\n  }\n\n  constructor(address _owner, address _cToken, address _operator) public {\n    require(_owner != address(0), \"Funding/owner-zero\");\n    require(_cToken != address(0), \"Funding/ctoken-zero\");\n    require(_operator != address(0), \"Funding/operator-zero\");\n\n    Ownable.initialize(_owner);\n    cToken = ICErc20(_cToken);\n    operator = _operator;\n  }\n\n  function deposit(uint256 _amount) public nonReentrant {\n    // Transfer the tokens into this contract\n    require(token().transferFrom(msg.sender, address(this), _amount), \"Funding/t-fail\");\n\n    // Deposit the funds\n    _depositFrom(msg.sender, _amount);\n\n    emit Deposited(msg.sender, _amount);\n    // _depositPoolFrom(msg.sender, _amount);\n  }\n\n  /**\n   * @notice Withdraw the sender's entire balance back to them.\n   */\n  function withdraw() public nonReentrant {\n    uint256 balance = balances[msg.sender];\n    _withdraw(msg.sender, balance);\n\n    emit Withdrawn(msg.sender, balance);\n  }\n\n  /**\n  * @notice Deposits into the pool for a user.  Updates their balance and transfers their tokens into this contract.\n  * @param _spender The user who is depositing\n  * @param _amount The amount they are depositing\n  */\n  function _depositFrom(address _spender, uint256 _amount) internal {\n    require(_amount != 0, \"Funding/deposit-zero\");\n    // Update the user's balance\n    balances[_spender] = balances[_spender].add(_amount);\n\n    // Update the total of this contract\n    accountedBalance = accountedBalance.add(_amount);\n\n    // Deposit into Compound\n    require(token().approve(address(cToken), _amount), \"Funding/approve\");\n    require(cToken.mint(_amount) == 0, \"Funding/supply\");\n  }\n\n    /**\n   * @notice Transfers tokens from the cToken contract to the sender.  Updates the accounted balance.\n   */\n  function _withdraw(address _sender, uint256 _amount) internal {\n    uint256 balance = balances[_sender];\n\n    require(_amount <= balance, \"Funding/no-funds\");\n\n    // Update the user's balance\n    balances[_sender] = balance.sub(_amount);\n\n    // Update the total of this contract\n    accountedBalance = accountedBalance.sub(_amount);\n\n    // Withdraw from Compound and transfer\n    require(cToken.redeemUnderlying(_amount) == 0, \"Funding/redeem\");\n    require(token().transfer(_sender, _amount), \"Funding/transfer\");\n  }\n\n  function reward(address _receiver) public onlyOperatorOrOwner {\n    require(_receiver != address(0), \"Funding/receiver-zero\");\n\n    uint256 amount = interestEarned();\n    require(amount != 0, \"Funding/reward-zero\");\n\n    require(cToken.redeemUnderlying(amount) == 0, \"Funding/redeem\");\n    require(token().transfer(_receiver, amount), \"Funding/transfer\");\n\n    emit Rewarded(_receiver, amount);\n  }\n\n    /**\n   * @notice Returns the token underlying the cToken.\n   * @return An ERC20 token address\n   */\n  function token() public view returns (IERC20) {\n    return IERC20(cToken.underlying());\n  }\n\n  /**\n   * @notice Returns a user's total balance.  This includes their sponsorships, fees, open deposits, and committed deposits.\n   * @param _addr The address of the user to check.\n   * @return The user's current balance.\n   */\n  function balanceOf(address _addr) external view returns (uint256) {\n    return balances[_addr];\n  }\n\n  /**\n   * @notice Returns the underlying balance of this contract in the cToken.\n   * @return The cToken underlying balance for this contract.\n   */\n  function balance() public returns (uint256) {\n    return cToken.balanceOfUnderlying(address(this));\n  }\n\n    /**\n   * @notice Returns the interest earned by the contract till now\n   * @return The cToken underlying balance for this contract minus the deposited balance.\n   */\n  function interestEarned() public returns (uint256) {\n    return balance().sub(accountedBalance);\n  }\n\n\n    /**\n   * @notice Calculates the total estimated interest earned for the given number of blocks\n   * @param _blocks The number of block that interest accrued for\n   * @return The total estimated interest as a 18 point fixed decimal.\n   */\n  function estimatedInterestRate(uint256 _blocks) public view returns (uint256) {\n    return supplyRatePerBlock().mul(_blocks);\n  }\n\n  /**\n   * @notice Convenience function to return the supplyRatePerBlock value from the money market contract.\n   * @return The cToken supply rate per block\n   */\n  function supplyRatePerBlock() public view returns (uint256) {\n    return cToken.supplyRatePerBlock();\n  }\n\n}",
  "sourcePath": "/Users/leon/workspace/genie/genie-contracts/contracts/Funding.sol",
  "compiler": {
    "name": "solc",
    "version": "0.5.16+commit.9c3226ce.Emscripten.clang"
  },
  "schemaVersion": "3.1.0",
  "updatedAt": "2020-04-30T06:44:39.037Z",
  "devdoc": {
    "methods": {
      "balance()": {
        "return": "The cToken underlying balance for this contract."
      },
      "balanceOf(address)": {
        "params": {
          "_addr": "The address of the user to check."
        },
        "return": "The user's current balance."
      },
      "estimatedInterestRate(uint256)": {
        "params": {
          "_blocks": "The number of block that interest accrued for"
        },
        "return": "The total estimated interest as a 18 point fixed decimal."
      },
      "initialize(address)": {
        "details": "Initializes the contract setting the deployer as the initial owner."
      },
      "interestEarned()": {
        "return": "The cToken underlying balance for this contract minus the deposited balance."
      },
      "isOwner()": {
        "details": "Returns true if the caller is the current owner."
      },
      "owner()": {
        "details": "Returns the address of the current owner."
      },
      "renounceOwnership()": {
        "details": "Leaves the contract without owner. It will not be possible to call `onlyOwner` functions anymore. Can only be called by the current owner.     * > Note: Renouncing ownership will leave the contract without an owner, thereby removing any functionality that is only available to the owner."
      },
      "supplyRatePerBlock()": {
        "return": "The cToken supply rate per block"
      },
      "token()": {
        "return": "An ERC20 token address"
      },
      "transferOwnership(address)": {
        "details": "Transfers ownership of the contract to a new account (`newOwner`). Can only be called by the current owner."
      }
    }
  },
  "userdoc": {
    "methods": {
      "balance()": {
        "notice": "Returns the underlying balance of this contract in the cToken."
      },
      "balanceOf(address)": {
        "notice": "Returns a user's total balance.  This includes their sponsorships, fees, open deposits, and committed deposits."
      },
      "estimatedInterestRate(uint256)": {
        "notice": "Calculates the total estimated interest earned for the given number of blocks"
      },
      "interestEarned()": {
        "notice": "Returns the interest earned by the contract till now"
      },
      "supplyRatePerBlock()": {
        "notice": "Convenience function to return the supplyRatePerBlock value from the money market contract."
      },
      "token()": {
        "notice": "Returns the token underlying the cToken."
      },
      "withdraw()": {
        "notice": "Withdraw the sender's entire balance back to them."
      }
    }
  }
}