{
  "contractName": "FundingFactory",
  "abi": [
    {
      "anonymous": false,
      "inputs": [
        {
          "indexed": true,
          "internalType": "address",
          "name": "funding",
          "type": "address"
        },
        {
          "indexed": false,
          "internalType": "address",
          "name": "owner",
          "type": "address"
        },
        {
          "indexed": false,
          "internalType": "address",
          "name": "operator",
          "type": "address"
        },
        {
          "indexed": false,
          "internalType": "address",
          "name": "interestToken",
          "type": "address"
        }
      ],
      "name": "FundingCreated",
      "type": "event"
    },
    {
      "constant": true,
      "inputs": [],
      "name": "link",
      "outputs": [
        {
          "internalType": "address",
          "name": "",
          "type": "address"
        }
      ],
      "payable": false,
      "stateMutability": "view",
      "type": "function"
    },
    {
      "constant": false,
      "inputs": [
        {
          "internalType": "address",
          "name": "_link",
          "type": "address"
        }
      ],
      "name": "initialize",
      "outputs": [],
      "payable": false,
      "stateMutability": "nonpayable",
      "type": "function"
    },
    {
      "constant": false,
      "inputs": [
        {
          "internalType": "address",
          "name": "_cToken",
          "type": "address"
        },
        {
          "internalType": "address",
          "name": "_operator",
          "type": "address"
        },
        {
          "internalType": "string",
          "name": "_oracleUrl",
          "type": "string"
        },
        {
          "internalType": "string",
          "name": "_oraclePath",
          "type": "string"
        },
        {
          "internalType": "uint8",
          "name": "_level",
          "type": "uint8"
        },
        {
          "internalType": "uint256",
          "name": "ticketPrice",
          "type": "uint256"
        }
      ],
      "name": "createFunding",
      "outputs": [
        {
          "internalType": "address",
          "name": "fundingAddress",
          "type": "address"
        }
      ],
      "payable": false,
      "stateMutability": "nonpayable",
      "type": "function"
    }
  ],
  "bytecode": "0x608060405234801561001057600080fd5b50615eae806100206000396000f3fe60806040523480156200001157600080fd5b5060043610620000465760003560e01c80631c4695f4146200004b578063870579701462000097578063c4d66de81462000289575b600080fd5b62000055620002d0565b604051808273ffffffffffffffffffffffffffffffffffffffff1673ffffffffffffffffffffffffffffffffffffffff16815260200191505060405180910390f35b62000247600480360360c0811015620000af57600080fd5b81019080803573ffffffffffffffffffffffffffffffffffffffff169060200190929190803573ffffffffffffffffffffffffffffffffffffffff169060200190929190803590602001906401000000008111156200010d57600080fd5b8201836020820111156200012057600080fd5b803590602001918460018302840111640100000000831117156200014357600080fd5b91908080601f016020809104026020016040519081016040528093929190818152602001838380828437600081840152601f19601f82011690508083019250505050505050919291929080359060200190640100000000811115620001a757600080fd5b820183602082011115620001ba57600080fd5b80359060200191846001830284011164010000000083111715620001dd57600080fd5b91908080601f016020809104026020016040519081016040528093929190818152602001838380828437600081840152601f19601f820116905080830192505050505050509192919290803560ff16906020019092919080359060200190929190505050620002f6565b604051808273ffffffffffffffffffffffffffffffffffffffff1673ffffffffffffffffffffffffffffffffffffffff16815260200191505060405180910390f35b620002ce60048036036020811015620002a157600080fd5b81019080803573ffffffffffffffffffffffffffffffffffffffff16906020019092919050505062000703565b005b603360009054906101000a900473ffffffffffffffffffffffffffffffffffffffff1681565b600080858585603360009054906101000a900473ffffffffffffffffffffffffffffffffffffffff166040516200032d9062000863565b8080602001806020018560ff1660ff1681526020018473ffffffffffffffffffffffffffffffffffffffff1673ffffffffffffffffffffffffffffffffffffffff168152602001838103835287818151815260200191508051906020019080838360005b83811015620003ae57808201518184015260208101905062000391565b50505050905090810190601f168015620003dc5780820380516001836020036101000a031916815260200191505b50838103825286818151815260200191508051906020019080838360005b8381101562000417578082015181840152602081019050620003fa565b50505050905090810190601f168015620004455780820380516001836020036101000a031916815260200191505b509650505050505050604051809103906000f0801580156200046b573d6000803e3d6000fd5b50905060003389898487604051620004839062000871565b808673ffffffffffffffffffffffffffffffffffffffff1673ffffffffffffffffffffffffffffffffffffffff1681526020018573ffffffffffffffffffffffffffffffffffffffff1673ffffffffffffffffffffffffffffffffffffffff1681526020018473ffffffffffffffffffffffffffffffffffffffff1673ffffffffffffffffffffffffffffffffffffffff1681526020018373ffffffffffffffffffffffffffffffffffffffff1673ffffffffffffffffffffffffffffffffffffffff16815260200182815260200195505050505050604051809103906000f08015801562000576573d6000803e3d6000fd5b5090508092508173ffffffffffffffffffffffffffffffffffffffff1663f2fde38b846040518263ffffffff1660e01b8152600401808273ffffffffffffffffffffffffffffffffffffffff1673ffffffffffffffffffffffffffffffffffffffff168152602001915050600060405180830381600087803b158015620005fc57600080fd5b505af115801562000611573d6000803e3d6000fd5b505050508273ffffffffffffffffffffffffffffffffffffffff167f0380b98aa0ba56adba19a580a735f2e9cb6976a37b544b59587488fe5da9e927338a8c604051808473ffffffffffffffffffffffffffffffffffffffff1673ffffffffffffffffffffffffffffffffffffffff1681526020018373ffffffffffffffffffffffffffffffffffffffff1673ffffffffffffffffffffffffffffffffffffffff1681526020018273ffffffffffffffffffffffffffffffffffffffff1673ffffffffffffffffffffffffffffffffffffffff168152602001935050505060405180910390a250509695505050505050565b600060019054906101000a900460ff1680620007255750620007246200084c565b5b806200073d57506000809054906101000a900460ff16155b62000794576040517f08c379a000000000000000000000000000000000000000000000000000000000815260040180806020018281038252602e81526020018062005e4c602e913960400191505060405180910390fd5b60008060019054906101000a900460ff161590508015620007e5576001600060016101000a81548160ff02191690831515021790555060016000806101000a81548160ff0219169083151502179055505b81603360006101000a81548173ffffffffffffffffffffffffffffffffffffffff021916908373ffffffffffffffffffffffffffffffffffffffff1602179055508015620008485760008060016101000a81548160ff0219169083151502179055505b5050565b6000803090506000813b9050600081149250505090565b6126f2806200088083390190565b612eda8062002f728339019056fe608060405260016004553480156200001657600080fd5b50604051620026f2380380620026f2833981810160405260808110156200003c57600080fd5b81019080805160405193929190846401000000008211156200005d57600080fd5b838201915060208201858111156200007457600080fd5b82518660018202830111640100000000821117156200009257600080fd5b8083526020830192505050908051906020019080838360005b83811015620000c8578082015181840152602081019050620000ab565b50505050905090810190601f168015620000f65780820380516001836020036101000a031916815260200191505b50604052602001805160405193929190846401000000008211156200011a57600080fd5b838201915060208201858111156200013157600080fd5b82518660018202830111640100000000821117156200014f57600080fd5b8083526020830192505050908051906020019080838360005b838110156200018557808201518184015260208101905062000168565b50505050905090810190601f168015620001b35780820380516001836020036101000a031916815260200191505b506040526020018051906020019092919080519060200190929190505050600073ffffffffffffffffffffffffffffffffffffffff168173ffffffffffffffffffffffffffffffffffffffff1614156200021d57620002176200029c60201b60201c565b6200022f565b6200022e816200034660201b60201c565b5b83606e90805190602001906200024792919062000571565b5082606f90805190602001906200026092919062000571565b5081606d60006101000a81548160ff021916908360ff16021790555062000292336200038a60201b62000ee51760201c565b5050505062000620565b6200034473c89bd4e1632d3a43cb03aaad5262cbe4038bc57173ffffffffffffffffffffffffffffffffffffffff166338cc48316040518163ffffffff1660e01b815260040160206040518083038186803b158015620002fb57600080fd5b505afa15801562000310573d6000803e3d6000fd5b505050506040513d60208110156200032757600080fd5b81019080805190602001909291905050506200034660201b60201c565b565b80600260006101000a81548173ffffffffffffffffffffffffffffffffffffffff021916908373ffffffffffffffffffffffffffffffffffffffff16021790555050565b600660019054906101000a900460ff1680620003b25750620003b16200055a60201b60201c565b5b80620003cb5750600660009054906101000a900460ff16155b62000422576040517f08c379a000000000000000000000000000000000000000000000000000000000815260040180806020018281038252602e815260200180620026c4602e913960400191505060405180910390fd5b6000600660019054906101000a900460ff16159050801562000475576001600660016101000a81548160ff0219169083151502179055506001600660006101000a81548160ff0219169083151502179055505b81603960006101000a81548173ffffffffffffffffffffffffffffffffffffffff021916908373ffffffffffffffffffffffffffffffffffffffff160217905550603960009054906101000a900473ffffffffffffffffffffffffffffffffffffffff1673ffffffffffffffffffffffffffffffffffffffff16600073ffffffffffffffffffffffffffffffffffffffff167f8be0079c531659141344cd1fd0a4f28419497f9722a3daafe3b4186f6b6457e060405160405180910390a3801562000556576000600660016101000a81548160ff0219169083151502179055505b5050565b6000803090506000813b9050600081149250505090565b828054600181600116156101000203166002900490600052602060002090601f016020900481019282601f10620005b457805160ff1916838001178555620005e5565b82800160010185558215620005e5579182015b82811115620005e4578251825591602001919060010190620005c7565b5b509050620005f49190620005f8565b5090565b6200061d91905b8082111562000619576000816000905550600101620005ff565b5090565b90565b61209480620006306000396000f3fe608060405234801561001057600080fd5b50600436106100ea5760003560e01c80638da5cb5b1161008c578063af7e861f11610066578063af7e861f14610339578063c4d66de8146103c5578063ec65d0f814610409578063f2fde38b14610474576100ea565b80638da5cb5b146102c35780638dc654a21461030d5780638f32d59b14610317576100ea565b80635600f04f116100c85780635600f04f146101f45780636fd5ae1514610277578063715018a61461029b57806373d4a13a146102a5576100ea565b8063042f2b65146100ef578063165d35e1146101275780633dc0635614610171575b600080fd5b6101256004803603604081101561010557600080fd5b8101908080359060200190929190803590602001909291905050506104b8565b005b61012f6105df565b604051808273ffffffffffffffffffffffffffffffffffffffff1673ffffffffffffffffffffffffffffffffffffffff16815260200191505060405180910390f35b6101796105ee565b6040518080602001828103825283818151815260200191508051906020019080838360005b838110156101b957808201518184015260208101905061019e565b50505050905090810190601f1680156101e65780820380516001836020036101000a031916815260200191505b509250505060405180910390f35b6101fc61068c565b6040518080602001828103825283818151815260200191508051906020019080838360005b8381101561023c578082015181840152602081019050610221565b50505050905090810190601f1680156102695780820380516001836020036101000a031916815260200191505b509250505060405180910390f35b61027f61072a565b604051808260ff1660ff16815260200191505060405180910390f35b6102a361073d565b005b6102ad610878565b6040518082815260200191505060405180910390f35b6102cb61087e565b604051808273ffffffffffffffffffffffffffffffffffffffff1673ffffffffffffffffffffffffffffffffffffffff16815260200191505060405180910390f35b6103156108a8565b005b61031f610b1c565b604051808215151515815260200191505060405180910390f35b6103af6004803603608081101561034f57600080fd5b81019080803573ffffffffffffffffffffffffffffffffffffffff169060200190929190803573ffffffffffffffffffffffffffffffffffffffff1690602001909291908035906020019092919080359060200190929190505050610b7b565b6040518082815260200191505060405180910390f35b610407600480360360208110156103db57600080fd5b81019080803573ffffffffffffffffffffffffffffffffffffffff169060200190929190505050610ee5565b005b6104726004803603608081101561041f57600080fd5b81019080803590602001909291908035906020019092919080357bffffffffffffffffffffffffffffffffffffffffffffffffffffffff19169060200190929190803590602001909291905050506110a7565b005b6104b66004803603602081101561048a57600080fd5b81019080803573ffffffffffffffffffffffffffffffffffffffff169060200190929190505050611133565b005b816005600082815260200190815260200160002060009054906101000a900473ffffffffffffffffffffffffffffffffffffffff1673ffffffffffffffffffffffffffffffffffffffff163373ffffffffffffffffffffffffffffffffffffffff1614610570576040517f08c379a00000000000000000000000000000000000000000000000000000000081526004018080602001828103825260288152602001806120386028913960400191505060405180910390fd5b6005600082815260200190815260200160002060006101000a81549073ffffffffffffffffffffffffffffffffffffffff0219169055807f7cc135e0cebb02c3480ae5d74d377283180a2601f8f644edf7987b009316c63a60405160405180910390a281606c81905550505050565b60006105e96111b9565b905090565b606f8054600181600116156101000203166002900480601f0160208091040260200160405190810160405280929190818152602001828054600181600116156101000203166002900480156106845780601f1061065957610100808354040283529160200191610684565b820191906000526020600020905b81548152906001019060200180831161066757829003601f168201915b505050505081565b606e8054600181600116156101000203166002900480601f0160208091040260200160405190810160405280929190818152602001828054600181600116156101000203166002900480156107225780601f106106f757610100808354040283529160200191610722565b820191906000526020600020905b81548152906001019060200180831161070557829003601f168201915b505050505081565b606d60009054906101000a900460ff1681565b610745610b1c565b6107b7576040517f08c379a00000000000000000000000000000000000000000000000000000000081526004018080602001828103825260208152602001807f4f776e61626c653a2063616c6c6572206973206e6f7420746865206f776e657281525060200191505060405180910390fd5b600073ffffffffffffffffffffffffffffffffffffffff16603960009054906101000a900473ffffffffffffffffffffffffffffffffffffffff1673ffffffffffffffffffffffffffffffffffffffff167f8be0079c531659141344cd1fd0a4f28419497f9722a3daafe3b4186f6b6457e060405160405180910390a36000603960006101000a81548173ffffffffffffffffffffffffffffffffffffffff021916908373ffffffffffffffffffffffffffffffffffffffff160217905550565b606c5481565b6000603960009054906101000a900473ffffffffffffffffffffffffffffffffffffffff16905090565b6108b0610b1c565b610922576040517f08c379a00000000000000000000000000000000000000000000000000000000081526004018080602001828103825260208152602001807f4f776e61626c653a2063616c6c6572206973206e6f7420746865206f776e657281525060200191505060405180910390fd5b600061092c6111b9565b90508073ffffffffffffffffffffffffffffffffffffffff1663a9059cbb338373ffffffffffffffffffffffffffffffffffffffff166370a08231306040518263ffffffff1660e01b8152600401808273ffffffffffffffffffffffffffffffffffffffff1673ffffffffffffffffffffffffffffffffffffffff16815260200191505060206040518083038186803b1580156109c857600080fd5b505afa1580156109dc573d6000803e3d6000fd5b505050506040513d60208110156109f257600080fd5b81019080805190602001909291905050506040518363ffffffff1660e01b8152600401808373ffffffffffffffffffffffffffffffffffffffff1673ffffffffffffffffffffffffffffffffffffffff16815260200182815260200192505050602060405180830381600087803b158015610a6c57600080fd5b505af1158015610a80573d6000803e3d6000fd5b505050506040513d6020811015610a9657600080fd5b8101908080519060200190929190505050610b19576040517f08c379a00000000000000000000000000000000000000000000000000000000081526004018080602001828103825260128152602001807f556e61626c6520746f207472616e73666572000000000000000000000000000081525060200191505060405180910390fd5b50565b6000603960009054906101000a900473ffffffffffffffffffffffffffffffffffffffff1673ffffffffffffffffffffffffffffffffffffffff16610b5f6111e3565b73ffffffffffffffffffffffffffffffffffffffff1614905090565b6000610b85610b1c565b610bf7576040517f08c379a00000000000000000000000000000000000000000000000000000000081526004018080602001828103825260208152602001807f4f776e61626c653a2063616c6c6572206973206e6f7420746865206f776e657281525060200191505060405180910390fd5b610bff611f1f565b610c11843063042f2b6560e01b6111eb565b9050610cf76040518060400160405280600381526020017f75726c0000000000000000000000000000000000000000000000000000000000815250606e8054600181600116156101000203166002900480601f016020809104026020016040519081016040528092919081815260200182805460018160011615610100020316600290048015610ce25780601f10610cb757610100808354040283529160200191610ce2565b820191906000526020600020905b815481529060010190602001808311610cc557829003601f168201915b50505050508361121c9092919063ffffffff16565b610ddb6040518060400160405280600881526020017f636f707950617468000000000000000000000000000000000000000000000000815250606f8054600181600116156101000203166002900480601f016020809104026020016040519081016040528092919081815260200182805460018160011615610100020316600290048015610dc65780601f10610d9b57610100808354040283529160200191610dc6565b820191906000526020600020905b815481529060010190602001808311610da957829003601f168201915b50505050508361121c9092919063ffffffff16565b610e376040518060400160405280600581526020017f6c6576656c000000000000000000000000000000000000000000000000000000815250606d60009054906101000a900460ff1660ff168361124f9092919063ffffffff16565b610ecf6040518060400160405280600481526020017f706f6f6c0000000000000000000000000000000000000000000000000000000081525087604051602001808273ffffffffffffffffffffffffffffffffffffffff1673ffffffffffffffffffffffffffffffffffffffff1660601b8152601401915050604051602081830303815290604052836112829092919063ffffffff16565b610eda8582856112b5565b915050949350505050565b600660019054906101000a900460ff1680610f045750610f0361156d565b5b80610f1c5750600660009054906101000a900460ff16155b610f71576040517f08c379a000000000000000000000000000000000000000000000000000000000815260040180806020018281038252602e81526020018061200a602e913960400191505060405180910390fd5b6000600660019054906101000a900460ff161590508015610fc3576001600660016101000a81548160ff0219169083151502179055506001600660006101000a81548160ff0219169083151502179055505b81603960006101000a81548173ffffffffffffffffffffffffffffffffffffffff021916908373ffffffffffffffffffffffffffffffffffffffff160217905550603960009054906101000a900473ffffffffffffffffffffffffffffffffffffffff1673ffffffffffffffffffffffffffffffffffffffff16600073ffffffffffffffffffffffffffffffffffffffff167f8be0079c531659141344cd1fd0a4f28419497f9722a3daafe3b4186f6b6457e060405160405180910390a380156110a3576000600660016101000a81548160ff0219169083151502179055505b5050565b6110af610b1c565b611121576040517f08c379a00000000000000000000000000000000000000000000000000000000081526004018080602001828103825260208152602001807f4f776e61626c653a2063616c6c6572206973206e6f7420746865206f776e657281525060200191505060405180910390fd5b61112d84848484611584565b50505050565b61113b610b1c565b6111ad576040517f08c379a00000000000000000000000000000000000000000000000000000000081526004018080602001828103825260208152602001807f4f776e61626c653a2063616c6c6572206973206e6f7420746865206f776e657281525060200191505060405180910390fd5b6111b6816116e7565b50565b6000600260009054906101000a900473ffffffffffffffffffffffffffffffffffffffff16905090565b600033905090565b6111f3611f1f565b6111fb611f1f565b6112128585858461182d909392919063ffffffff16565b9150509392505050565b6112338284608001516118dd90919063ffffffff16565b61124a8184608001516118dd90919063ffffffff16565b505050565b6112668284608001516118dd90919063ffffffff16565b61127d81846080015161190290919063ffffffff16565b505050565b6112998284608001516118dd90919063ffffffff16565b6112b081846080015161194e90919063ffffffff16565b505050565b600030600454604051602001808373ffffffffffffffffffffffffffffffffffffffff1673ffffffffffffffffffffffffffffffffffffffff1660601b815260140182815260200192505050604051602081830303815290604052805190602001209050600454836060018181525050836005600083815260200190815260200160002060006101000a81548173ffffffffffffffffffffffffffffffffffffffff021916908373ffffffffffffffffffffffffffffffffffffffff160217905550807fb5e6e01e79f91267dc17b4e6314d5d4d03593d2ceee0fbb452b750bd70ea5af960405160405180910390a2600260009054906101000a900473ffffffffffffffffffffffffffffffffffffffff1673ffffffffffffffffffffffffffffffffffffffff16634000aea085846113ed87611973565b6040518463ffffffff1660e01b8152600401808473ffffffffffffffffffffffffffffffffffffffff1673ffffffffffffffffffffffffffffffffffffffff16815260200183815260200180602001828103825283818151815260200191508051906020019080838360005b83811015611474578082015181840152602081019050611459565b50505050905090810190601f1680156114a15780820380516001836020036101000a031916815260200191505b50945050505050602060405180830381600087803b1580156114c257600080fd5b505af11580156114d6573d6000803e3d6000fd5b505050506040513d60208110156114ec57600080fd5b8101908080519060200190929190505050611552576040517f08c379a0000000000000000000000000000000000000000000000000000000008152600401808060200182810382526023815260200180611fe76023913960400191505060405180910390fd5b60016004600082825401925050819055508090509392505050565b6000803090506000813b9050600081149250505090565b60006005600086815260200190815260200160002060009054906101000a900473ffffffffffffffffffffffffffffffffffffffff1690506005600086815260200190815260200160002060006101000a81549073ffffffffffffffffffffffffffffffffffffffff0219169055847fe1fe3afa0f7f761ff0a8b89086790efd5140d2907ebd5b7ff6bfcb5e075fd4c560405160405180910390a28073ffffffffffffffffffffffffffffffffffffffff16636ee4d553868686866040518563ffffffff1660e01b815260040180858152602001848152602001837bffffffffffffffffffffffffffffffffffffffffffffffffffffffff19167bffffffffffffffffffffffffffffffffffffffffffffffffffffffff19168152602001828152602001945050505050600060405180830381600087803b1580156116c857600080fd5b505af11580156116dc573d6000803e3d6000fd5b505050505050505050565b600073ffffffffffffffffffffffffffffffffffffffff168173ffffffffffffffffffffffffffffffffffffffff16141561176d576040517f08c379a0000000000000000000000000000000000000000000000000000000008152600401808060200182810382526026815260200180611fc16026913960400191505060405180910390fd5b8073ffffffffffffffffffffffffffffffffffffffff16603960009054906101000a900473ffffffffffffffffffffffffffffffffffffffff1673ffffffffffffffffffffffffffffffffffffffff167f8be0079c531659141344cd1fd0a4f28419497f9722a3daafe3b4186f6b6457e060405160405180910390a380603960006101000a81548173ffffffffffffffffffffffffffffffffffffffff021916908373ffffffffffffffffffffffffffffffffffffffff16021790555050565b611835611f1f565b6118458560800151610100611b7a565b508385600001818152505082856020019073ffffffffffffffffffffffffffffffffffffffff16908173ffffffffffffffffffffffffffffffffffffffff16815250508185604001907bffffffffffffffffffffffffffffffffffffffffffffffffffffffff191690817bffffffffffffffffffffffffffffffffffffffffffffffffffffffff191681525050849050949350505050565b6118ea8260038351611bce565b6118fd8183611d1390919063ffffffff16565b505050565b6000811261191b5761191682600083611bce565b61194a565b611949826001837fffffffffffffffffffffffffffffffffffffffffffffffffffffffffffffffff03611bce565b5b5050565b61195b8260028351611bce565b61196e8183611d1390919063ffffffff16565b505050565b6060600360009054906101000a900473ffffffffffffffffffffffffffffffffffffffff1673ffffffffffffffffffffffffffffffffffffffff166340429946905060e01b60008084600001518560200151866040015187606001516001896080015160000151604051602401808973ffffffffffffffffffffffffffffffffffffffff1673ffffffffffffffffffffffffffffffffffffffff1681526020018881526020018781526020018673ffffffffffffffffffffffffffffffffffffffff1673ffffffffffffffffffffffffffffffffffffffff168152602001857bffffffffffffffffffffffffffffffffffffffffffffffffffffffff19167bffffffffffffffffffffffffffffffffffffffffffffffffffffffff1916815260200184815260200183815260200180602001828103825283818151815260200191508051906020019080838360005b83811015611add578082015181840152602081019050611ac2565b50505050905090810190601f168015611b0a5780820380516001836020036101000a031916815260200191505b509950505050505050505050604051602081830303815290604052907bffffffffffffffffffffffffffffffffffffffffffffffffffffffff19166020820180517bffffffffffffffffffffffffffffffffffffffffffffffffffffffff83818316178352505050509050919050565b611b82611f8c565b600060208381611b8e57fe5b0614611ba75760208281611b9e57fe5b06602003820191505b81836020018181525050604051808452600081528281016020016040525082905092915050565b60178111611bfb57611bf58160058460ff16901b60ff161784611d3590919063ffffffff16565b50611d0e565b60ff8111611c3d57611c20601860058460ff16901b1784611d3590919063ffffffff16565b50611c3781600185611d559092919063ffffffff16565b50611d0d565b61ffff8111611c8057611c63601960058460ff16901b1784611d3590919063ffffffff16565b50611c7a81600285611d559092919063ffffffff16565b50611d0c565b63ffffffff8111611cc557611ca8601a60058460ff16901b1784611d3590919063ffffffff16565b50611cbf81600485611d559092919063ffffffff16565b50611d0b565b67ffffffffffffffff8111611d0a57611cf1601b60058460ff16901b1784611d3590919063ffffffff16565b50611d0881600885611d559092919063ffffffff16565b505b5b5b5b5b505050565b611d1b611f8c565b611d2d83846000015151848551611d77565b905092915050565b611d3d611f8c565b611d4d8384600001515184611e30565b905092915050565b611d5d611f8c565b611d6e848560000151518585611e7e565b90509392505050565b611d7f611f8c565b8251821115611d8d57600080fd5b84602001518285011115611db857611db7856002611db18860200151888701611edf565b02611efb565b5b600080865180518760208301019350808887011115611dd75787860182525b60208701925050505b60208410611e035780518252602082019150602081019050602084039350611de0565b60006001856020036101000a03905080198251168184511681811785525050879350505050949350505050565b611e38611f8c565b83602001518310611e5557611e54846002866020015102611efb565b5b8351805160208583010184815381861415611e71576001820183525b5050508390509392505050565b611e86611f8c565b84602001518483011115611ea457611ea385600286850102611efb565b5b60006001836101000a0390508551838682010185831982511617815281518588011115611ed15784870182525b505085915050949350505050565b600081831115611ef157829050611ef5565b8190505b92915050565b606082600001519050611f0e8383611b7a565b50611f198382611d13565b50505050565b6040518060a0016040528060008019168152602001600073ffffffffffffffffffffffffffffffffffffffff16815260200160007bffffffffffffffffffffffffffffffffffffffffffffffffffffffff1916815260200160008152602001611f86611fa6565b81525090565b604051806040016040528060608152602001600081525090565b60405180604001604052806060815260200160008152509056fe4f776e61626c653a206e6577206f776e657220697320746865207a65726f2061646472657373756e61626c6520746f207472616e73666572416e6443616c6c20746f206f7261636c65436f6e747261637420696e7374616e63652068617320616c7265616479206265656e20696e697469616c697a6564536f75726365206d75737420626520746865206f7261636c65206f66207468652072657175657374a265627a7a72315820e3c204d020534a9f80ea9f8e06d1db90fd9f4f99f4a7e317f185e8191a449cf864736f6c63430005100032436f6e747261637420696e7374616e63652068617320616c7265616479206265656e20696e697469616c697a656460806040523480156200001157600080fd5b5060405162002eda38038062002eda833981810160405260a08110156200003757600080fd5b810190808051906020019092919080519060200190929190805190602001909291908051906020019092919080519060200190929190505050600073ffffffffffffffffffffffffffffffffffffffff168573ffffffffffffffffffffffffffffffffffffffff16141562000114576040517f08c379a00000000000000000000000000000000000000000000000000000000081526004018080602001828103825260128152602001807f46756e64696e672f6f776e65722d7a65726f000000000000000000000000000081525060200191505060405180910390fd5b600073ffffffffffffffffffffffffffffffffffffffff168473ffffffffffffffffffffffffffffffffffffffff161415620001b8576040517f08c379a00000000000000000000000000000000000000000000000000000000081526004018080602001828103825260138152602001807f46756e64696e672f63746f6b656e2d7a65726f0000000000000000000000000081525060200191505060405180910390fd5b600073ffffffffffffffffffffffffffffffffffffffff168373ffffffffffffffffffffffffffffffffffffffff1614156200025c576040517f08c379a00000000000000000000000000000000000000000000000000000000081526004018080602001828103825260158152602001807f46756e64696e672f6f70657261746f722d7a65726f000000000000000000000081525060200191505060405180910390fd5b62000272856200036260201b620014891760201c565b83609c60006101000a81548173ffffffffffffffffffffffffffffffffffffffff021916908373ffffffffffffffffffffffffffffffffffffffff16021790555082609960006101000a81548173ffffffffffffffffffffffffffffffffffffffff021916908373ffffffffffffffffffffffffffffffffffffffff16021790555081609e60006101000a81548173ffffffffffffffffffffffffffffffffffffffff021916908373ffffffffffffffffffffffffffffffffffffffff16021790555080609b819055506001609e60146101000a81548160ff021916908315150217905550505050505062000545565b600060019054906101000a900460ff16806200038a5750620003896200052e60201b60201c565b5b80620003a257506000809054906101000a900460ff16155b620003f9576040517f08c379a000000000000000000000000000000000000000000000000000000000815260040180806020018281038252602e81526020018062002eac602e913960400191505060405180910390fd5b60008060019054906101000a900460ff1615905080156200044a576001600060016101000a81548160ff02191690831515021790555060016000806101000a81548160ff0219169083151502179055505b81603360006101000a81548173ffffffffffffffffffffffffffffffffffffffff021916908373ffffffffffffffffffffffffffffffffffffffff160217905550603360009054906101000a900473ffffffffffffffffffffffffffffffffffffffff1673ffffffffffffffffffffffffffffffffffffffff16600073ffffffffffffffffffffffffffffffffffffffff167f8be0079c531659141344cd1fd0a4f28419497f9722a3daafe3b4186f6b6457e060405160405180910390a380156200052a5760008060016101000a81548160ff0219169083151502179055505b5050565b6000803090506000813b9050600081149250505090565b61295780620005556000396000f3fe608060405234801561001057600080fd5b506004361061014d5760003560e01c806377bbb757116100c3578063b69ef8a81161007c578063b69ef8a81461049e578063c4d66de8146104bc578063f1215d2514610500578063f2fde38b146105c5578063fc0c546a14610609578063febdb9b8146106535761014d565b806377bbb7571461037e5780637dc0d1d0146103c05780638129fc1c1461040a5780638da5cb5b146104145780638f32d59b1461045e578063ae9d70b0146104805761014d565b8063570ca73511610115578063570ca735146101d85780636353586b1461022257806369e527da146102665780636ff3879d146102b057806370a082311461031c578063715018a6146103745761014d565b80630937eb54146101525780631209b1f614610170578063374261ab1461018e5780633ccfd60b146101ac57806347535d7b146101b6575b600080fd5b61015a61065d565b6040518082815260200191505060405180910390f35b610178610663565b6040518082815260200191505060405180910390f35b610196610669565b6040518082815260200191505060405180910390f35b6101b461068c565b005b6101be6107bb565b604051808215151515815260200191505060405180910390f35b6101e06107ce565b604051808273ffffffffffffffffffffffffffffffffffffffff1673ffffffffffffffffffffffffffffffffffffffff16815260200191505060405180910390f35b6102646004803603602081101561023857600080fd5b81019080803573ffffffffffffffffffffffffffffffffffffffff1690602001909291905050506107f4565b005b61026e610ccc565b604051808273ffffffffffffffffffffffffffffffffffffffff1673ffffffffffffffffffffffffffffffffffffffff16815260200191505060405180910390f35b610306600480360360608110156102c657600080fd5b81019080803573ffffffffffffffffffffffffffffffffffffffff1690602001909291908035906020019092919080359060200190929190505050610cf2565b6040518082815260200191505060405180910390f35b61035e6004803603602081101561033257600080fd5b81019080803573ffffffffffffffffffffffffffffffffffffffff169060200190929190505050610f9f565b6040518082815260200191505060405180910390f35b61037c610fe8565b005b6103aa6004803603602081101561039457600080fd5b8101908080359060200190929190505050611123565b6040518082815260200191505060405180910390f35b6103c8611146565b604051808273ffffffffffffffffffffffffffffffffffffffff1673ffffffffffffffffffffffffffffffffffffffff16815260200191505060405180910390f35b61041261116c565b005b61041c611273565b604051808273ffffffffffffffffffffffffffffffffffffffff1673ffffffffffffffffffffffffffffffffffffffff16815260200191505060405180910390f35b61046661129d565b604051808215151515815260200191505060405180910390f35b6104886112fc565b6040518082815260200191505060405180910390f35b6104a66113a6565b6040518082815260200191505060405180910390f35b6104fe600480360360208110156104d257600080fd5b81019080803573ffffffffffffffffffffffffffffffffffffffff169060200190929190505050611489565b005b6105c36004803603604081101561051657600080fd5b81019080803590602001909291908035906020019064010000000081111561053d57600080fd5b82018360208201111561054f57600080fd5b8035906020019184600183028401116401000000008311171561057157600080fd5b91908080601f016020809104026020016040519081016040528093929190818152602001838380828437600081840152601f19601f820116905080830192505050505050509192919290505050611647565b005b610607600480360360208110156105db57600080fd5b81019080803573ffffffffffffffffffffffffffffffffffffffff169060200190929190505050611a16565b005b610611611a9c565b604051808273ffffffffffffffffffffffffffffffffffffffff1673ffffffffffffffffffffffffffffffffffffffff16815260200191505060405180910390f35b61065b611b46565b005b609a5481565b609b5481565b6000610687609a546106796113a6565b611df390919063ffffffff16565b905090565b6001606660008282540192505081905550600060665490506000609d60003373ffffffffffffffffffffffffffffffffffffffff1673ffffffffffffffffffffffffffffffffffffffff1681526020019081526020016000205490506106f23382611e3d565b3373ffffffffffffffffffffffffffffffffffffffff167f7084f5476618d8e60b11ef0d7d3f06914655adb8793e28ff7f018d4c76d505d5826040518082815260200191505060405180910390a25060665481146107b8576040517f08c379a000000000000000000000000000000000000000000000000000000000815260040180806020018281038252601f8152602001807f5265656e7472616e637947756172643a207265656e7472616e742063616c6c0081525060200191505060405180910390fd5b50565b609e60149054906101000a900460ff1681565b609960009054906101000a900473ffffffffffffffffffffffffffffffffffffffff1681565b609960009054906101000a900473ffffffffffffffffffffffffffffffffffffffff1673ffffffffffffffffffffffffffffffffffffffff163373ffffffffffffffffffffffffffffffffffffffff1614806108825750610853611273565b73ffffffffffffffffffffffffffffffffffffffff163373ffffffffffffffffffffffffffffffffffffffff16145b6108f4576040517f08c379a000000000000000000000000000000000000000000000000000000000815260040180806020018281038252601c8152602001807f46756e64696e672f69732d6f70657461746f722d6f722d6f776e65720000000081525060200191505060405180910390fd5b600073ffffffffffffffffffffffffffffffffffffffff168173ffffffffffffffffffffffffffffffffffffffff161415610997576040517f08c379a00000000000000000000000000000000000000000000000000000000081526004018080602001828103825260158152602001807f46756e64696e672f72656365697665722d7a65726f000000000000000000000081525060200191505060405180910390fd5b60006109a1610669565b90506000811415610a1a576040517f08c379a00000000000000000000000000000000000000000000000000000000081526004018080602001828103825260138152602001807f46756e64696e672f7265776172642d7a65726f0000000000000000000000000081525060200191505060405180910390fd5b6000609c60009054906101000a900473ffffffffffffffffffffffffffffffffffffffff1673ffffffffffffffffffffffffffffffffffffffff1663852a12e3836040518263ffffffff1660e01b815260040180828152602001915050602060405180830381600087803b158015610a9157600080fd5b505af1158015610aa5573d6000803e3d6000fd5b505050506040513d6020811015610abb57600080fd5b810190808051906020019092919050505014610b3f576040517f08c379a000000000000000000000000000000000000000000000000000000000815260040180806020018281038252600e8152602001807f46756e64696e672f72656465656d00000000000000000000000000000000000081525060200191505060405180910390fd5b610b47611a9c565b73ffffffffffffffffffffffffffffffffffffffff1663a9059cbb83836040518363ffffffff1660e01b8152600401808373ffffffffffffffffffffffffffffffffffffffff1673ffffffffffffffffffffffffffffffffffffffff16815260200182815260200192505050602060405180830381600087803b158015610bcd57600080fd5b505af1158015610be1573d6000803e3d6000fd5b505050506040513d6020811015610bf757600080fd5b8101908080519060200190929190505050610c7a576040517f08c379a00000000000000000000000000000000000000000000000000000000081526004018080602001828103825260108152602001807f46756e64696e672f7472616e736665720000000000000000000000000000000081525060200191505060405180910390fd5b8173ffffffffffffffffffffffffffffffffffffffff167fb3b7a071186534c03b40695710096f289fd4ed6c1a374aff0bb648955e4fe563826040518082815260200191505060405180910390a25050565b609c60009054906101000a900473ffffffffffffffffffffffffffffffffffffffff1681565b6000609e60149054906101000a900460ff16610d76576040517f08c379a000000000000000000000000000000000000000000000000000000000815260040180806020018281038252600b8152602001807f467564696e672f6f70656e00000000000000000000000000000000000000000081525060200191505060405180910390fd5b609960009054906101000a900473ffffffffffffffffffffffffffffffffffffffff1673ffffffffffffffffffffffffffffffffffffffff163373ffffffffffffffffffffffffffffffffffffffff161480610e045750610dd5611273565b73ffffffffffffffffffffffffffffffffffffffff163373ffffffffffffffffffffffffffffffffffffffff16145b610e76576040517f08c379a000000000000000000000000000000000000000000000000000000000815260040180806020018281038252601c8152602001807f46756e64696e672f69732d6f70657461746f722d6f722d6f776e65720000000081525060200191505060405180910390fd5b609e60009054906101000a900473ffffffffffffffffffffffffffffffffffffffff1673ffffffffffffffffffffffffffffffffffffffff1663af7e861f308686866040518563ffffffff1660e01b8152600401808573ffffffffffffffffffffffffffffffffffffffff1673ffffffffffffffffffffffffffffffffffffffff1681526020018473ffffffffffffffffffffffffffffffffffffffff1673ffffffffffffffffffffffffffffffffffffffff168152602001838152602001828152602001945050505050602060405180830381600087803b158015610f5b57600080fd5b505af1158015610f6f573d6000803e3d6000fd5b505050506040513d6020811015610f8557600080fd5b810190808051906020019092919050505090509392505050565b6000609d60008373ffffffffffffffffffffffffffffffffffffffff1673ffffffffffffffffffffffffffffffffffffffff168152602001908152602001600020549050919050565b610ff061129d565b611062576040517f08c379a00000000000000000000000000000000000000000000000000000000081526004018080602001828103825260208152602001807f4f776e61626c653a2063616c6c6572206973206e6f7420746865206f776e657281525060200191505060405180910390fd5b600073ffffffffffffffffffffffffffffffffffffffff16603360009054906101000a900473ffffffffffffffffffffffffffffffffffffffff1673ffffffffffffffffffffffffffffffffffffffff167f8be0079c531659141344cd1fd0a4f28419497f9722a3daafe3b4186f6b6457e060405160405180910390a36000603360006101000a81548173ffffffffffffffffffffffffffffffffffffffff021916908373ffffffffffffffffffffffffffffffffffffffff160217905550565b600061113f826111316112fc565b6121cd90919063ffffffff16565b9050919050565b609e60009054906101000a900473ffffffffffffffffffffffffffffffffffffffff1681565b600060019054906101000a900460ff168061118b575061118a612253565b5b806111a257506000809054906101000a900460ff16155b6111f7576040517f08c379a000000000000000000000000000000000000000000000000000000000815260040180806020018281038252602e8152602001806128f5602e913960400191505060405180910390fd5b60008060019054906101000a900460ff161590508015611247576001600060016101000a81548160ff02191690831515021790555060016000806101000a81548160ff0219169083151502179055505b600160668190555080156112705760008060016101000a81548160ff0219169083151502179055505b50565b6000603360009054906101000a900473ffffffffffffffffffffffffffffffffffffffff16905090565b6000603360009054906101000a900473ffffffffffffffffffffffffffffffffffffffff1673ffffffffffffffffffffffffffffffffffffffff166112e061226a565b73ffffffffffffffffffffffffffffffffffffffff1614905090565b6000609c60009054906101000a900473ffffffffffffffffffffffffffffffffffffffff1673ffffffffffffffffffffffffffffffffffffffff1663ae9d70b06040518163ffffffff1660e01b815260040160206040518083038186803b15801561136657600080fd5b505afa15801561137a573d6000803e3d6000fd5b505050506040513d602081101561139057600080fd5b8101908080519060200190929190505050905090565b6000609c60009054906101000a900473ffffffffffffffffffffffffffffffffffffffff1673ffffffffffffffffffffffffffffffffffffffff16633af9e669306040518263ffffffff1660e01b8152600401808273ffffffffffffffffffffffffffffffffffffffff1673ffffffffffffffffffffffffffffffffffffffff168152602001915050602060405180830381600087803b15801561144957600080fd5b505af115801561145d573d6000803e3d6000fd5b505050506040513d602081101561147357600080fd5b8101908080519060200190929190505050905090565b600060019054906101000a900460ff16806114a857506114a7612253565b5b806114bf57506000809054906101000a900460ff16155b611514576040517f08c379a000000000000000000000000000000000000000000000000000000000815260040180806020018281038252602e8152602001806128f5602e913960400191505060405180910390fd5b60008060019054906101000a900460ff161590508015611564576001600060016101000a81548160ff02191690831515021790555060016000806101000a81548160ff0219169083151502179055505b81603360006101000a81548173ffffffffffffffffffffffffffffffffffffffff021916908373ffffffffffffffffffffffffffffffffffffffff160217905550603360009054906101000a900473ffffffffffffffffffffffffffffffffffffffff1673ffffffffffffffffffffffffffffffffffffffff16600073ffffffffffffffffffffffffffffffffffffffff167f8be0079c531659141344cd1fd0a4f28419497f9722a3daafe3b4186f6b6457e060405160405180910390a380156116435760008060016101000a81548160ff0219169083151502179055505b5050565b609e60149054906101000a900460ff166116c9576040517f08c379a000000000000000000000000000000000000000000000000000000000815260040180806020018281038252600b8152602001807f467564696e672f6f70656e00000000000000000000000000000000000000000081525060200191505060405180910390fd5b6001606660008282540192505081905550600060665490506000609b5414806116f45750609b548310155b611766576040517f08c379a00000000000000000000000000000000000000000000000000000000081526004018080602001828103825260148152602001807f46756e64696e672f736d616c6c2d616d6f756e7400000000000000000000000081525060200191505060405180910390fd5b61176e611a9c565b73ffffffffffffffffffffffffffffffffffffffff166323b872dd3330866040518463ffffffff1660e01b8152600401808473ffffffffffffffffffffffffffffffffffffffff1673ffffffffffffffffffffffffffffffffffffffff1681526020018373ffffffffffffffffffffffffffffffffffffffff1673ffffffffffffffffffffffffffffffffffffffff1681526020018281526020019350505050602060405180830381600087803b15801561182857600080fd5b505af115801561183c573d6000803e3d6000fd5b505050506040513d602081101561185257600080fd5b81019080805190602001909291905050506118d5576040517f08c379a000000000000000000000000000000000000000000000000000000000815260040180806020018281038252600e8152602001807f46756e64696e672f742d6661696c00000000000000000000000000000000000081525060200191505060405180910390fd5b6118df3384612272565b3373ffffffffffffffffffffffffffffffffffffffff167f6f85d9948d6ca3dd6ce6ce7d175da22b4e865827ae6fcd530ec7edac1240f92884846040518083815260200180602001828103825283818151815260200191508051906020019080838360005b8381101561195f578082015181840152602081019050611944565b50505050905090810190601f16801561198c5780820380516001836020036101000a031916815260200191505b50935050505060405180910390a26066548114611a11576040517f08c379a000000000000000000000000000000000000000000000000000000000815260040180806020018281038252601f8152602001807f5265656e7472616e637947756172643a207265656e7472616e742063616c6c0081525060200191505060405180910390fd5b505050565b611a1e61129d565b611a90576040517f08c379a00000000000000000000000000000000000000000000000000000000081526004018080602001828103825260208152602001807f4f776e61626c653a2063616c6c6572206973206e6f7420746865206f776e657281525060200191505060405180910390fd5b611a998161261f565b50565b6000609c60009054906101000a900473ffffffffffffffffffffffffffffffffffffffff1673ffffffffffffffffffffffffffffffffffffffff16636f307dc36040518163ffffffff1660e01b815260040160206040518083038186803b158015611b0657600080fd5b505afa158015611b1a573d6000803e3d6000fd5b505050506040513d6020811015611b3057600080fd5b8101908080519060200190929190505050905090565b609e60149054906101000a900460ff16611bc8576040517f08c379a000000000000000000000000000000000000000000000000000000000815260040180806020018281038252600b8152602001807f467564696e672f6f70656e00000000000000000000000000000000000000000081525060200191505060405180910390fd5b6000609e60009054906101000a900473ffffffffffffffffffffffffffffffffffffffff1673ffffffffffffffffffffffffffffffffffffffff166373d4a13a6040518163ffffffff1660e01b815260040160206040518083038186803b158015611c3257600080fd5b505afa158015611c46573d6000803e3d6000fd5b505050506040513d6020811015611c5c57600080fd5b810190808051906020019092919050505060001c90508073ffffffffffffffffffffffffffffffffffffffff16600073ffffffffffffffffffffffffffffffffffffffff161415611d15576040517f08c379a00000000000000000000000000000000000000000000000000000000081526004018080602001828103825260138152602001807f46756e64696e672f77696e6e65722d7a65726f0000000000000000000000000081525060200191505060405180910390fd5b609b54609d60008373ffffffffffffffffffffffffffffffffffffffff1673ffffffffffffffffffffffffffffffffffffffff168152602001908152602001600020541015611dcc576040517f08c379a00000000000000000000000000000000000000000000000000000000081526004018080602001828103825260198152602001807f46756e64696e672f77696e6e65722d6e6f2d6465706f7369740000000000000081525060200191505060405180910390fd5b6000609e60146101000a81548160ff021916908315150217905550611df0816107f4565b50565b6000611e3583836040518060400160405280601e81526020017f536166654d6174683a207375627472616374696f6e206f766572666c6f770000815250612765565b905092915050565b6000609d60008473ffffffffffffffffffffffffffffffffffffffff1673ffffffffffffffffffffffffffffffffffffffff16815260200190815260200160002054905080821115611ef7576040517f08c379a00000000000000000000000000000000000000000000000000000000081526004018080602001828103825260108152602001807f46756e64696e672f6e6f2d66756e64730000000000000000000000000000000081525060200191505060405180910390fd5b611f0a8282611df390919063ffffffff16565b609d60008573ffffffffffffffffffffffffffffffffffffffff1673ffffffffffffffffffffffffffffffffffffffff16815260200190815260200160002081905550611f6282609a54611df390919063ffffffff16565b609a819055506000609c60009054906101000a900473ffffffffffffffffffffffffffffffffffffffff1673ffffffffffffffffffffffffffffffffffffffff1663852a12e3846040518263ffffffff1660e01b815260040180828152602001915050602060405180830381600087803b158015611fdf57600080fd5b505af1158015611ff3573d6000803e3d6000fd5b505050506040513d602081101561200957600080fd5b81019080805190602001909291905050501461208d576040517f08c379a000000000000000000000000000000000000000000000000000000000815260040180806020018281038252600e8152602001807f46756e64696e672f72656465656d00000000000000000000000000000000000081525060200191505060405180910390fd5b612095611a9c565b73ffffffffffffffffffffffffffffffffffffffff1663a9059cbb84846040518363ffffffff1660e01b8152600401808373ffffffffffffffffffffffffffffffffffffffff1673ffffffffffffffffffffffffffffffffffffffff16815260200182815260200192505050602060405180830381600087803b15801561211b57600080fd5b505af115801561212f573d6000803e3d6000fd5b505050506040513d602081101561214557600080fd5b81019080805190602001909291905050506121c8576040517f08c379a00000000000000000000000000000000000000000000000000000000081526004018080602001828103825260108152602001807f46756e64696e672f7472616e736665720000000000000000000000000000000081525060200191505060405180910390fd5b505050565b6000808314156121e0576000905061224d565b60008284029050828482816121f157fe5b0414612248576040517f08c379a00000000000000000000000000000000000000000000000000000000081526004018080602001828103825260218152602001806128d46021913960400191505060405180910390fd5b809150505b92915050565b6000803090506000813b9050600081149250505090565b600033905090565b60008114156122e9576040517f08c379a00000000000000000000000000000000000000000000000000000000081526004018080602001828103825260148152602001807f46756e64696e672f6465706f7369742d7a65726f00000000000000000000000081525060200191505060405180910390fd5b61233b81609d60008573ffffffffffffffffffffffffffffffffffffffff1673ffffffffffffffffffffffffffffffffffffffff1681526020019081526020016000205461282590919063ffffffff16565b609d60008473ffffffffffffffffffffffffffffffffffffffff1673ffffffffffffffffffffffffffffffffffffffff1681526020019081526020016000208190555061239381609a5461282590919063ffffffff16565b609a819055506123a1611a9c565b73ffffffffffffffffffffffffffffffffffffffff1663095ea7b3609c60009054906101000a900473ffffffffffffffffffffffffffffffffffffffff16836040518363ffffffff1660e01b8152600401808373ffffffffffffffffffffffffffffffffffffffff1673ffffffffffffffffffffffffffffffffffffffff16815260200182815260200192505050602060405180830381600087803b15801561244957600080fd5b505af115801561245d573d6000803e3d6000fd5b505050506040513d602081101561247357600080fd5b81019080805190602001909291905050506124f6576040517f08c379a000000000000000000000000000000000000000000000000000000000815260040180806020018281038252600f8152602001807f46756e64696e672f617070726f7665000000000000000000000000000000000081525060200191505060405180910390fd5b6000609c60009054906101000a900473ffffffffffffffffffffffffffffffffffffffff1673ffffffffffffffffffffffffffffffffffffffff1663a0712d68836040518263ffffffff1660e01b815260040180828152602001915050602060405180830381600087803b15801561256d57600080fd5b505af1158015612581573d6000803e3d6000fd5b505050506040513d602081101561259757600080fd5b81019080805190602001909291905050501461261b576040517f08c379a000000000000000000000000000000000000000000000000000000000815260040180806020018281038252600e8152602001807f46756e64696e672f737570706c7900000000000000000000000000000000000081525060200191505060405180910390fd5b5050565b600073ffffffffffffffffffffffffffffffffffffffff168173ffffffffffffffffffffffffffffffffffffffff1614156126a5576040517f08c379a00000000000000000000000000000000000000000000000000000000081526004018080602001828103825260268152602001806128ae6026913960400191505060405180910390fd5b8073ffffffffffffffffffffffffffffffffffffffff16603360009054906101000a900473ffffffffffffffffffffffffffffffffffffffff1673ffffffffffffffffffffffffffffffffffffffff167f8be0079c531659141344cd1fd0a4f28419497f9722a3daafe3b4186f6b6457e060405160405180910390a380603360006101000a81548173ffffffffffffffffffffffffffffffffffffffff021916908373ffffffffffffffffffffffffffffffffffffffff16021790555050565b6000838311158290612812576040517f08c379a00000000000000000000000000000000000000000000000000000000081526004018080602001828103825283818151815260200191508051906020019080838360005b838110156127d75780820151818401526020810190506127bc565b50505050905090810190601f1680156128045780820380516001836020036101000a031916815260200191505b509250505060405180910390fd5b5060008385039050809150509392505050565b6000808284019050838110156128a3576040517f08c379a000000000000000000000000000000000000000000000000000000000815260040180806020018281038252601b8152602001807f536166654d6174683a206164646974696f6e206f766572666c6f77000000000081525060200191505060405180910390fd5b809150509291505056fe4f776e61626c653a206e6577206f776e657220697320746865207a65726f2061646472657373536166654d6174683a206d756c7469706c69636174696f6e206f766572666c6f77436f6e747261637420696e7374616e63652068617320616c7265616479206265656e20696e697469616c697a6564a265627a7a723158205179de333897738a08864fc12f0efa9cc82eb5e1d53359d669adcb7e42f7fd5c64736f6c63430005100032436f6e747261637420696e7374616e63652068617320616c7265616479206265656e20696e697469616c697a6564436f6e747261637420696e7374616e63652068617320616c7265616479206265656e20696e697469616c697a6564a265627a7a7231582088617ac6ea8fb7129d946160d4c07320ab899865ef21bd55be9347c68449579e64736f6c63430005100032",
  "source": "\npragma solidity ^0.5.0;\n\nimport \"@openzeppelin/upgrades/contracts/Initializable.sol\";\nimport \"./Funding.sol\";\nimport \"./FundingOracleClient.sol\";\n\ncontract FundingFactory is Initializable {\n\n  event FundingCreated(address indexed funding, address owner, address operator, address interestToken) ;\n\n  address public link;\n\n  function initialize(\n    address _link\n  ) public initializer {\n    link = _link;\n  }\n\n  function createFunding(address _cToken, address _operator,\n      string memory _oracleUrl, string memory _oraclePath, uint8 _level, uint256 ticketPrice) public  returns (address fundingAddress) {\n    FundingOracleClient oracle = new FundingOracleClient(_oracleUrl, _oraclePath, _level, link);\n    Funding funding = new Funding(msg.sender, _cToken, _operator, address(oracle), ticketPrice);\n\n    fundingAddress = address(funding);\n    oracle.transferOwnership(fundingAddress);\n    emit FundingCreated(fundingAddress, msg.sender, _operator, _cToken);\n  }\n}\n",
  "sourcePath": "/Users/leon/workspace/genie/genie-contracts/contracts/funding/FundingFactory.sol",
  "compiler": {
    "name": "solc",
    "version": "0.5.16+commit.9c3226ce.Emscripten.clang"
  },
  "schemaVersion": "3.1.0",
  "updatedAt": "2020-05-20T13:05:28.640Z",
  "devdoc": {
    "methods": {}
  },
  "userdoc": {
    "methods": {}
  }
}